:02000004000FEB
:10400000684E002001430F0009430F000B430F00CF
:104010000D430F000F430F0011430F00000000007D
:1040200000000000000000000000000013430F002B
:1040300015430F000000000017430F0019430F0045
:10404000E1590F001B430F001B430F001B430F00E0
:104050001B430F001B430F001B430F001B430F00AC
:104060001B430F001B430F001B430F001B430F009C
:104070001B430F001B430F001B430F001B430F008C
:10408000A15D0F00F1590F001B430F001B430F00F0
:10409000695A0F001B430F001B430F001B430F0007
:1040A0001B430F001B430F001B430F001B430F005C
:1040B0001B430F001B430F00000000000000000026
:1040C0001B430F001B430F001B430F001B430F003C
:1040D000095A0F001B430F001B430F00455C0F00E4
:1040E0001B430F001B430F00CD440F0000000000D6
:1040F000000000001B430F00000000001B430F00E6
:1041000000000000000000000000000000000000AF
:10411000000000000000000000000000000000009F
:10412000000000000000000000000000000000008F
:10413000000000000000000000000000000000007F
:10414000000000000000000000000000000000006F
:10415000000000000000000000000000000000005F
:10416000000000000000000000000000000000004F
:10417000000000000000000000000000000000003F
:10418000000000000000000000000000000000002F
:10419000000000000000000000000000000000001F
:1041A000000000000000000000000000000000000F
:1041B00000000000000000000000000000000000FF
:1041C00000000000000000000000000000000000EF
:1041D00000000000000000000000000000000000DF
:1041E00000000000000000000000000000000000CF
:1041F00000000000000000000000000000000000BF
:10420000DFF80CD000F006F900480047D58E0F000B
:10421000684E002080F308888E46104730B404466C
:1042200054E8000F0D4644E80053002BF8D1156008
:1042300030BC704730B4044654E8000F40EA010532
:1042400044E80053002BF7D1156030BC704730B400
:10425000044654E8000F00EA010544E80053002B2F
:10426000F7D1156030BC704730B4044654E8000FF5
:1042700080EA010544E80053002BF7D1156030BCFB
:10428000704730B4044654E8000F00EB010544E8E1
:104290000053002BF7D1156030BC704730B4044692
:1042A00054E8000FA0EB010544E80053002BF7D1C0
:1042B000156030BC704770B404464FF0000054E8FD
:1042C000006F0D68AE4207BF44E80023012044E8B8
:1042D00000630E60002B1CBF0020F0E770BC70472D
:1042E00030B4044654E8000F88422CBF451A0546F6
:1042F00044E80053002BF5D1156030BC7047000036
:104300000648804706480047FEE7FEE7FEE7FEE76F
:10431000FEE7FEE7FEE7FEE7FEE7FEE77D5A0F0059
:1043200001420F0010B5441A0346944209D2841882
:10433000114403E011F8013D04F8013D521EF9D289
:1043400010BD40EA0104A40703D009E010C9121F00
:1043500010C3042AFAD203E011F8014B03F8014B11
:10436000521EF9D210BDD2B201E000F8012B491E55
:10437000FBD270470022F6E710B513460A46044602
:104380001946FFF7F0FF204610BD421C10F8011B34
:104390000029FBD1801A704730B50446002003463F
:1043A00000E05B1C934203D2E05CCD5C401BF8D084
:1043B00030BD2DE9F05F0546002092469B468846B9
:1043C0000646814640241BE0284641464746224691
:1043D00000F041F853465A46C01A914110D3114695
:1043E0001846224600F028F82D1A67EB01084F46C0
:1043F00022460120002100F01FF817EB00094E4172
:10440000201EA4F10104DFDC484631462A4643461B
:10441000BDE8F09F064C074D06E0E06840F0010360
:1044200094E8070098471034AC42F6D3FFF7ECFE4F
:10443000D8C00F00F8C00F00202A04DB203A00FA91
:1044400002F1002070479140C2F1200320FA03F3EB
:10445000194390407047202A04DB203A21FA02F0E9
:104460000021704721FA02F3D040C2F120029140AE
:1044700008431946704770B58C1810F8015B15F0A9
:10448000070301D110F8013B2A1106D110F8012BC6
:1044900003E010F8016B01F8016B5B1EF9D12B07EB
:1044A00005D40023521E0DD401F8013BFAE710F8A1
:1044B000013BCB1A921C03E013F8015B01F8015B8E
:1044C000521EF9D5A142D8D3002070BD054B4FF044
:1044D000FF321A6053F8042C034B1A601A68034B1E
:1044E0001A60704704BA0250602E002008BA0250C9
:1044F00001EB820204388A4201D10020704752F851
:10450000043D1BBA40F8043FF5E7000000B5374B07
:104510008FB019461A680092009AD207FAD5344B28
:10452000344A1A600A680192019AD007FAD5324AD1
:104530001A600A680292029AD207FAD52F4A1A60C4
:104540000A680392039AD007FAD52D4A1A600A68BE
:104550000492049AD207FAD52A4A1A600A68059288
:10456000059AD007FAD5284A1A600A680692069A70
:10457000D207FAD5254A1A600A680792079AD00727
:10458000FAD5234A1A600A680892089AD207FAD51F
:10459000204A1A600A680992099AD007FAD51E4A79
:1045A0001A600A680A920A9AD207FAD51B4A1A6058
:1045B00008680B900B98C007FAD51A600A680C922D
:1045C0000C9AD007FAD5164A1A600A680D920D9A0D
:1045D000D207FAD5134A1A600E210D230F220020AC
:1045E00000F088FD0FB05DF804FB00BFB0B00250D2
:1045F00080B0025080430129406339218070012935
:104600008020542100D13490C0403490C030202903
:10461000C0530D9000413890832308C880E31021D7
:1046200000413821CF4308C810B5504B96B01C4606
:104630001A680192019AD207FAD54D4B4D4A1A6079
:1046400022680292029AD207FAD54B4A1A604B4A64
:1046500042EA804022680392039AD207FAD5186092
:1046600022680492049AD007FAD5454A1A60A2F546
:10467000800242EA814122680592059AD207FAD562
:10468000196022680692069AD007FAD53D4A1A6048
:1046900022680792079AD107FAD53B4A1A60226826
:1046A0000892089AD207FAD5384A1A602268099205
:1046B000099AD007FAD5364A1A6022680A920A9AED
:1046C000D107FAD5334A1A6022680B920B9AD207A7
:1046D000FAD5314A1A6022680C920C9AD007FAD5A2
:1046E0002E4A1A6022680D920D9AD107FAD52C4AEB
:1046F0001A6022680E920E9AD207FAD5294A1A60D9
:1047000022680F920F9AD007FAD5274A1A602168BB
:1047100010911099C907FAD51A60144B1A461968F6
:1047200011911199C807FAD5114B204919601168E8
:1047300012911299C907FAD51D4919601168139190
:104740001399CC07FAD50B49196011681491149983
:10475000C807FAD517491960116815911599C90745
:10476000FAD5154A1A6016B010BD00BFB0B002509D
:1047700080B002504004419000862929D81001C819
:104780004014419040142129401465210034409088
:1047900000310C90C0400C90C030202940960D9004
:1047A00000416090031645C8008611210041602138
:1047B000594644C84014459040142D90F0B5464BDE
:1047C00089B01D461C680194019CE407FAD5434B4F
:1047D000DFF810C1DFF810E113449B000A181B68D2
:1047E0001E2A88BFC0F11E011F330A185B095A43F5
:1047F000B2F5806F88BF4FF480614FF0000484BF32
:10480000B1FBF3F1091A00F1A05000F52C40274646
:10481000A14233DC2A680492049AD207FAD5304ABE
:104820001268296805910599CF07FAD52D482E4CB5
:104830000260002216469A4202F1010140D12A4C40
:10484000134621F0010100268B423CD32B680693CE
:10485000069BDE07FAD5254B1B682C680794079C3E
:10486000E407FAD5036000231F481C469A422DD165
:104870001D4A00208B422CD309B0F0BD2A68029259
:10488000029AD207FAD50219920012682E6803968E
:10489000039EF607FAD5CCF8002000229A4202F1D6
:1048A000010206D11E4622F00102964204D30134D1
:1048B000AEE7CEF80070F1E7CEF800700136F4E70D
:1048C00026600A46B7E726600133BDE7046001337E
:1048D000CCE710600133CDE7B4B0025024AC001433
:1048E0007CB00250D4B00250D8B0025078B0025020
:1048F000F0B5294D85B02C462E680096009EF6072F
:10490000FAD500F1A05000F52C4080000568206821
:1049100001900198C707FAD52048214F056002EBA6
:104920008306B24229D15A1C1D4E22F001020027F3
:10493000934227D323680293029BDE07FAD5194BD3
:104940000B449B001B681F335B099A4213D22168FA
:1049500003910399C907FAD5154400219B1A104AFF
:1049600005600846994210D35A1C0D4922F00102F5
:10497000002093420CD305B0F0BD52F804EBC7F809
:1049800000E0CEE737600133D2E710600131E9E79C
:1049900008600133EDE700BFB4B00250D4B002505C
:1049A000D8B0025024AC001410B5494B94B019464D
:1049B0001A680092009AD207FAD5464B464A1A6006
:1049C0000A680192019AD407FAD5444A1A600A6823
:1049D0000292029AD007FAD5414818600A680392F9
:1049E000039AD207FAD53F4A1A600A680492049AD9
:1049F000D407FAD53C4A1A600A680592059AD2078C
:104A0000FAD53A4A1A600A680692069AD407FAD585
:104A1000374A1A600A680792079AD207FAD5354AC8
:104A20001A600A680892089AD407FAD5324A1A60BE
:104A30000A680992099AD207FAD5304A1A600A68B8
:104A40000A920A9AD407FAD52D4A1A600A680B927C
:104A50000B9AD207FAD52B4A1A600A680C920C9A64
:104A6000D407FAD5284A1A600A680D920D9AD2071F
:104A7000FAD5264A1A600A680E920E9AD407FAD519
:104A8000234A1A600A680F920F9AD207FAD5214A70
:104A90001A600F4B19461C681094109CE407FAD555
:104AA0000C4B1860086811901198C407FAD51A6069
:104AB0000A681292129AD007FAD5174A1A600A6841
:104AC0001392139AD207FAD5144A1A6014B010BD83
:104AD000B0B0025080B0025080906521000409906F
:104AE000409665908080612180200821802064901C
:104AF0000081619000461021008111210041442174
:104B000080202029024610C80086092180206021CB
:104B1000402128294096652140962529594614C8E8
:104B200010B5544B98B019461A680192019AD207F1
:104B3000FAD5514B514A1A600A680292029AD40778
:104B4000FAD54F4A1A600A680392039AD007FAD539
:104B50004C4818600A680492049AD207FAD54A4A67
:104B60001A600A680592059AD407FAD5474A1A606E
:104B70000A680692069AD207FAD5454A1A600A6868
:104B80000792079AD407FAD5424A1A600A6808922F
:104B9000089AD207FAD5404A1A600A680992099A17
:104BA000D407FAD53D4A1A600A680A920A9AD207CF
:104BB000FAD53B4A1A600A680B920B9AD407FAD5C9
:104BC000384A1A600A680C920C9AD207FAD5364A0B
:104BD0001A600A680D920D9AD407FAD5334A1A6002
:104BE0000A680E920E9AD207FAD5314A1A600A68FC
:104BF0000F920F9AD407FAD52E4A1A600A681092BB
:104C0000109AD207FAD52C4A1A601A4B19461C681A
:104C10001194119CE407FAD5174B1860086812909C
:104C20001298C407FAD51A600A681392139AD0072B
:104C3000FAD5124A1A600A681492149AD207FAD561
:104C40001E4A1A600A681592159AD407FAD51C4AAA
:104C50001A600A681692169AD007FAD5194A1A608D
:104C60000A681792179AD207FAD5174A1A6018B02D
:104C700010BD00BFB0B0025080B00250009365215B
:104C800000043190409665900083612100C330217B
:104C900000C36490008161900046102100811121C1
:104CA0000041442100C320290C4610C80086312150
:104CB00000C3602140C1282940966521001331902E
:104CC00040962529594614C8400432492DE9F0413F
:104CD000814B1D6898682033A0B01E461A68019267
:104CE000019AD707FAD57D4B7D4A1A603268029245
:104CF000029AD407FAD57B4A1A607B4A1446116897
:104D000003910399C907FAD5784A1168C1F3402184
:104D100037680497049FFF07FAD5754F1F6027680F
:104D20000597059FFF07FAD51768002900F0CF8087
:104D3000B90540F1CC80316806910699CF07FAD5C4
:104D40006C491960216807910799C907FAD511685C
:104D5000C1F3402137680897089FFF07FAD5664FCF
:104D60001F6027680997099FFF07FAD51268002975
:104D700000F0AF80910540F1AC8032680A920A9A47
:104D8000D207FAD5564A1A6032680B920B9AD707A7
:104D9000FAD55A4A1A6031680C910C99CC07FAD5A9
:104DA0005749196031680D910D99C907FAD55549D0
:104DB000196031680E910E99CF07FAD552491960E2
:104DC00031680F910F99CC07FAD550491960504BB3
:104DD0001E46196810911099C907FAD53F4C4D4BE2
:104DE000236033681193119BDB07FAD54A4B23608C
:104DF00033681293129BDF07FAD5484B23603A4B76
:104E00009846196813911399C907FAD5324F38603B
:104E100033681493149BDB07FAD52260336815932B
:104E2000159BD807FAD53E4B236033681693169B23
:104E3000D907FAD53B4B236033681793179BDA07E2
:104E4000FAD5394B236033681893189BDB07FAD5E2
:104E5000364B236033681993199BD807FAD5344B26
:104E6000236033681A931A9BD907FAD5314B236014
:104E700033681B931B9BDA07FAD52F4B236000F096
:104E8000D3F908BBD8F800301C931C9BDB07F9D57D
:104E90003D6033681D931D9BD907FAD5274B2360CE
:104EA00033681E931E9BDA07FAD5254B2360D8F88A
:104EB00000301F931F9BDB07F9D50C4B1B6813F4C5
:104EC000805F204B08BF184620B0BDE8F0811E4827
:104ED000FAE71E48F8E700BF90B0025080B00250D9
:104EE00000100251C01F7229B4B0025088B00250A5
:104EF000C0CF0129C01F0E29C03F0029400102492F
:104F0000003184A800001649400108A180440888A7
:104F1000B0B00250C044708880077A41C0077E411B
:104F200000006A498006164940006E4900020021CF
:104F300000822021408220218082242140A161A181
:104F400000C861510308F1000108F1000208F100F6
:104F500008B540B1202801464FF0070228BF2021A4
:104F60000020FFF72BFC024B00221A6008BD00BF97
:104F70001CB802507FB51C681CB901F01F041F2C1F
:104F800027D1174C254626680196019EF607FAD5CB
:104F900000F1A05000F52C40800000682C680394BC
:104FA000039CE407FAD50F4C00EB611020600E481B
:104FB00001F01F04006802901F2C18BFC94302981B
:104FC0000FBF106001F01F0100FA01F11160002114
:104FD000196010684300C00F136004B070BD00BFBB
:104FE000B4B00250E4B00250DCB0025030B51E4BF9
:104FF00085B01A46196800910099CC07FAD500F1DE
:10500000A05000F52C408000016813680193019BBB
:10501000D807FAD5154B164C1868164D1F302023AB
:1050200090FBF3F00138002810DA00230130400132
:1050300053B1A0F120014FF00042134204D10138D6
:1050400081424FEA5202F8D105B030BD1368039394
:10505000039BDB07FAD5431823602B680293029B5E
:10506000002BE3D10138DEE7B4B00250ACB00250FF
:10507000E4B00250DCB002500A460021AFF30080D9
:1050800038B5A0F12003B3F5426F05462CD88F2820
:1050900026D800F1470300F16604DB064FEA5414FA
:1050A00000D0013464013F34A409013411B1A1429C
:1050B0001AD30C46E3004FF48050B0FBF3F02028E5
:1050C00028BF202002B11060084B01221A6021463F
:1050D00000F068F82846214600F088F8002038BD26
:1050E00000F11F046409DDE7014838BD1CB8025017
:1050F0002221F00070B5264888B005460468009467
:10510000009CE607FAD52348234C0460234C44EA6C
:1051100083432C680194019CE407FAD50360930152
:1051200043EA824242F0104444F4C0442B680293A4
:10513000029BDE07FAD504602B680393039BDB0711
:10514000FAD5174B03608B0143EA814141F01043CC
:1051500043F4C0432E680496049EF607FAD5036014
:105160002B680593059BDE07FAD5046041F0584192
:105170002B680693069BDC07FAD5016042F0584283
:105180002B680793079BDB07FAD5026008B070BD58
:10519000B0B0025080B00250C02102298071009846
:1051A0008061189030B500220C4C4900134602383B
:1051B00040F6FC75904202F10102CABF23602560EF
:1051C0005B181E2A04F10404F4D1054A1944136043
:1051D000044B054A19609A6030BD00BF00B0025010
:1051E00078B002507CB0025020F80F000C4B1860D1
:1051F0003F3020F03F008901403058609960D9600D
:105200001961596199611C330648196082B00268BE
:105210000192019AD207FAD5196002B0704700BF17
:1052200090B00250B4B002502DE9F04192B0012389
:1052300003930493624B1D461A680592059AD207A0
:10524000FAD5604C604B2360604B19461A68069291
:10525000069AD707FAD55E4B1A68D60400F1A880E3
:105260002A680792079AD007FAD55A4A22600A6834
:105270000892089AD207FAD51E68C6F30036002EA7
:1052800040F098801220FFF7B1FE07461320FFF789
:10529000ADFE87428CBF12201320FFF7A7FE471EEA
:1052A000FFF734F903AB01AA39461220FFF762FE7B
:1052B00004AB804602AA39461320FFF75BFE00EBE1
:1052C0004800022832D003283ED0012874D12B6830
:1052D0000993099BDB07FAD53F4B23602B680A93A0
:1052E0000A9BD807FAD53D4B23602B680F930F9B81
:1052F000D907FAD53A4B23602B681093109BDA0735
:10530000FAD5384B23602B681193119BDB07FAD534
:10531000354B2360013F25D5102319221821002089
:10532000FFF7E8FE304612B0BDE8F0812B680B9322
:105330000B9BD907FAD52D4B23602B680C930C9B44
:10534000DA07FAD52A4BCFE72B680D930D9BDB07C5
:10535000FAD5284B23602B680E930E9BD807FAD5FD
:10536000254BC1E703AB01AA39461220FFF702FE25
:1053700004AB044602AA39461320FFF7FBFD10EBED
:10538000440402D1FFF7CCFBC4E7FFF70DFB022C6E
:1053900008D0032C09D0012C10D117211620FFF7BB
:1053A00043F9B7E715211420F9E70F210E20F6E79E
:1053B000124EB7E7124EB5E7124EB3E7124EB1E701
:1053C000B0B0025080B0025000084A51B4B0025050
:1053D00088B0025000084E5100065A4940065E4906
:1053E000000442410014424940042E49000652493B
:1053F0004006564900063A4940063E490608F10073
:105400000708F1000408F1000508F100014B1860DD
:10541000704700BF08BA0250014B1860704700BFC8
:1054200004BA0250094BC2431A60043B82B01B68A5
:105430000193074B019A104204D0064A1060186885
:1054400002B0704720BF1A680192F3E704BA025015
:10545000602E002008BA0250FEF764BFFEF78CBF32
:105460000A460021FEF788BF2DE9F74305460E46A0
:105470009946114600F060FA0446002840F0848006
:10548000002E00F08580002900F08480B9F1200F03
:1054900040F0828005F14404082205F1040820460A
:1054A000FFF726F805F12407082231464046FFF7AA
:1054B0001FF806F1200108223846FFF719F802A963
:1054C0004FF4807041F8049DFFF7D6FD002865D1A8
:1054D000334A4FF480731360012193600823314AEB
:1054E000FFF706FA0121084605232F4AFFF700FAC5
:1054F0000823424601211C20FFF7FAF908233A4607
:1055000001210320FFF7F4F922460823012102209C
:10551000FFF7EEF90823254A01211A20FFF7E8F9E1
:105520000523234A01211B20FFF7E2F90823214A22
:1055300001211420FFF7DCF908231F4A012115205F
:10554000FFF7D6F9082305F1640201211620FFF7C1
:10555000CFF9082305F1840201211720FFF7C8F9CC
:105560000823164A01210B20FFF7C2F9FFF7AEFB13
:1055700004460198FFF7ECFC114B002C18BF1C46A9
:10558000A4212846FFF76CFF204603B0BDE8F08356
:105590000C4CF9E70C4CF7E70C4CF5E7084CEFE73F
:1055A00090B002504CC00F00C4C00F000CC00F00E0
:1055B000B0C00F0070C00F0090C00F002CC00F00D3
:1055C0008408F0007608F0008008F0008108F00000
:1055D00038B50D460446B0B1A02200210430FFF7D3
:1055E0003DFF95B12946082204F16400FEF780FFD3
:1055F000082205F1200104F18400FEF779FF044B35
:105600002360002038BD034838BD034838BD00BFC3
:10561000DD55AABB7108F0008308F0002DE9F041C8
:10562000069F044615461E46FFF7D2FF38B93B4693
:10563000324629462046BDE8F041FFF715BFBDE8D8
:10564000F08100002DE9FF41144B04460E460FCBBC
:105650008DE80F00204600F07FF98046B0B9CEB14A
:10566000636A251D01953BB901236362226F04F132
:105670003001684600F088F82B46043E243453F885
:10568000042B12BAA34246F8042FF8D1404604B0C6
:10569000BDE8F081DFF80880F8E700BFDCBF0F004D
:1056A0000502F00038B5044668B1051D2846702192
:1056B000FFF7D6FE284620220449FFF7CDFE044B13
:1056C0002360002038BD034838BD00BFECBF0F0089
:1056D000DD55AABB0002F000294B2DE9F04304463A
:1056E0000E4615460FCB85B06F468DE80F002DB9DD
:1056F0004FF00009484605B0BDE8F083204600F0B1
:105700002BF981460028F5D1231D0193636AA3BBC1
:10571000236F8BB1C3F14008A84528BFA84604F108
:105720003000314618444246FFF796FE236F43444B
:1057300046442367A5EB0805226F402A06D104F1F1
:105740003001384600F020F80023236705F03F08B9
:1057500035F03F0505D031462A46384600F014F8AA
:105760002E44B8F1000FC3D04246314604F1300058
:10577000FFF772FEC4F87080BCE7DFF80890B9E765
:10578000DCBF0F000C02F0002DE9F74F314B4468ED
:105790008046924699461A68002AFCD12E4B9B46B9
:1057A0001A68002AFCD14FF0FF300191FFF72EFE5E
:1057B0008020FFF731FE294D294A2A4F2A4E012326
:1057C00007202B60A2F59E72C2F83C011360636A49
:1057D0003B60A36A3360D8F8003042F8043CD8F844
:1057E0000830204698470199D9F80030002BFBD1AA
:1057F000BAF1000F20D11D4B04221A60D9F80030F5
:10580000002BFBD1DBF800A0BAF1000FFAD1D8F8D9
:105810000C30204698473B6863623368A362144BA0
:10582000C3F800A0C3F844A1D9F80030002BFBD185
:105830002B6003B0BDE8F08F236A012B04BF0C4A34
:1058400013600C4B40201960C3F804A0FFF7EAFD79
:10585000D4E700BF10B9025020BC025018B8025063
:1058600000B90250CCB70250D0B70250C8B70250AE
:1058700084B6025028BC0250084B1B681B0EF02B4C
:1058800008D1074B1A68074B9A4205D1064B0020F6
:1058900018607047052070470620704728B90250ED
:1058A00024BA02500000E0200CBA02500C4B1B68D6
:1058B000C3610C4B1B6883610B4B1B6843610B4B33
:1058C0001B6803610A4B1B68C3600A4B1B6883603B
:1058D000094B1B684360094B1B680360704700BF9E
:1058E0005CB6025058B6025054B6025050B6025040
:1058F0004CB6025048B6025044B6025040B6025070
:105900000C4BC2691A60826943F8042C426943F85F
:10591000082C026943F80C2CC26843F8102C8268EA
:1059200043F8142C426843F8182C026843F81C2CE6
:10593000704700BF5CB6025030B10268034B0448A8
:105940009A4208BF0020704702487047DD55AABB45
:105950008208F0007108F00030B10268034B04487F
:105960009A4208BF0020704702487047DD55AABB25
:105970000202F0000002F00000F01F02012191403D
:105980004009800000F1E020C0F88012704700F06C
:105990001F02012191404009800000F1E020C0F881
:1059A0000011704700F01F02012191404009800062
:1059B00000F1E020C0F8001270470000BFF34F8FE5
:1059C00005480168054A01F4E06111430160BFF335
:1059D0004F8F00BFFDE700000CED00E00400FA056A
:1059E00010B504F08BFEBDE8104004F021BE0000AD
:1059F00004480021016441648164C1640160416024
:105A000005F016BC001101402DE9F041144E4FF491
:105A10008271D6F80421002A06D0124AD3685B1C92
:105A2000D360304604F0FFFC00244FF4A07707EB6E
:105A3000840130468AB2825862B189B204F0F3FC24
:105A40000848103000EB0410054605F0E7FB284637
:105A500005F006FB641C022CE9D3BDE8F0810000D0
:105A6000004002404000002005F04CBB02490148C4
:105A7000086070470090D0033001002070B502F03C
:105A800095FE002420B16048046044605F480460D3
:105A900002F0A1FE002855D05D4800685D4908600D
:105AA0005B48001D0068091D0860594808300068FF
:105AB000091D086056480C300068091D08605448EC
:105AC00010300068091D0860514814300068091D35
:105AD00008604F48183000684E49203108604C4833
:105AE0001C300068091D0860494820300068091D05
:105AF0000860474824300068091D08604448283081
:105B00000068091D086042482C300068091D0860C3
:105B10003F48303000683F49403108603C483430ED
:105B20000068091D08603A4838300068091D08609F
:105B300037483C300068091D08603548403000682F
:105B4000091D086002F05CFE10B13449324808605B
:105B500002F0F0FD10B13249FB20086002F0F7FDC1
:105B600030B1304802783048016862F303010160C7
:105B700002F0FAFD18B12D494FF40070086002F0F0
:105B800000FE30B12A480168C90702D06FF0010158
:105B900001602848016841F470010160BFF34F8F34
:105BA000BFF36F8F4FF01022D2F80002002803DB02
:105BB000D2F80402002823DA1F4B012018601F4886
:105BC00001680029FCD01225C2F8005201680029A2
:105BD000FCD0C2F8045201680029FCD01C600168A6
:105BE0000029FCD0BFF34F8F12487C380168144A5B
:105BF00001F4E06111430160BFF34F8F00BFFDE787
:105C0000BDE87040FFF732BF0C010040380500408E
:105C10000404001020C50040488103008C56004059
:105C200018F5004058020010E40E00404096024073
:105C30000004004088ED00E004E5014000E401407C
:105C40000400FA052DE9F05F5148D0F804934D4661
:105C500000244FF0010816E095FAA5F0B0FA80F69E
:105C60004FEA860A0AF5807A504604F053FC07464C
:105C700017B1504604F058FC17B108FA06F0044377
:105C800008FA06F08543002DE6D104F025F9002836
:105C900062D0404DE878E8BBA0025DD53E4F40F2AF
:105CA000A97BC7F800B03E1D3068C2B20AB13068A7
:105CB000024040F2AA7AC7F800A03068C1B209B128
:105CC0003068014040F2AB7CC7F800C03068C0B219
:105CD00008B13368184040F2AC733B60336813403E
:105CE00033B12A691A432A61C7F800B033603268B9
:105CF00040F2AD723A6032680A403AB1296941EA2D
:105D000002412961C7F800A03260316840F2AE71EB
:105D1000396000E020E03168014059B1C80701D086
:105D200044F40004C80601D544F00104C7F800C0DB
:105D300031603068286930F0011102D009F08071BB
:105D40000C4310F0011F07D05FEA495104D520F041
:105D50000110286144F48064C4F3C05724F40005A2
:105D60000E4C09E095FAA5F0B0FA80F654F826003A
:105D7000804708FA06F08543002DF3D105F066FC54
:105D8000002F03D0BDE8F05F02F058BEBDE8F09FE1
:105D900000700240C00000200078024058BE0F0092
:105DA00008B50348002101600068009008BD0000AC
:105DB00000010140C11700EBD161074B4A1153F8B4
:105DC000222021F01F01411A01208840024201D007
:105DD000012070470020704700E100E00FB41CB5BF
:105DE0000246002007AC00290BD0491ECDE9002156
:105DF000054B6A462146069800F018F8009A0021E3
:105E000011701CBC5DF814FB8F620F0002E008C823
:105E1000121F08C1002AFAD170477047002001E024
:105E200001C1121F002AFBD1704700002DE9FF4F6E
:105E30008DB00F460546002606E025280BD0DDE98B
:105E40000F1290476D1C761C28780028F5D111B0F0
:105E50003046BDE8F08F0024A246A1460122EC495D
:105E600000E0044315F8013F203B02FA03F008422A
:105E7000F7D128782A2810D06FF02F022878A0F1C7
:105E80003001092914D80AEB8A0102EB410144F0E0
:105E9000020400EB010A6D1CF0E701CF5FEA000A83
:105EA00003D544F40054CAF1000A44F002046D1C06
:105EB00028782E2817D115F8010F44F004042A2859
:105EC0000ED06FF02F022878A0F1300109290AD8EE
:105ED00009EB890102EB410100EB01096D1CF2E7BE
:105EE00057F8049B6D1C28786C280FD006DC4C28D2
:105EF00017D068280DD06A2814D104E0742810D077
:105F00007A280FD10DE044F400140AE044F4801420
:105F100001E044F440146978814202D104F5801410
:105F20006D1C6D1C2A786E2A1FD00CDC632A31D0C0
:105F300004DC002A8BD0582A11D1A3E0642A68D04F
:105F4000692A0CD165E0732A2ED004DC6F2A73D045
:105F5000702A04D19BE0752A6FD0782A6ED0104643
:105F6000DDE90F129047761C50E1C4F3025002287D
:105F700006D0032809D0042801CF09D0066045E1E6
:105F800001CFF117C0E9006140E101CF06803DE19A
:105F900006703BE117F8040B8DF8000000208DF827
:105FA0000100EB46012003E057F804BB4FF0FF303F
:105FB00061074FF0000102D40DE008F101018846AD
:105FC00049450FDA8045F8DB1BF808100029F4D1A9
:105FD00008E008F1010188468142FADB1BF808104D
:105FE0000029F6D1DDE90F23AAEB080081462146FE
:105FF00000F036F9304400EB080604E0DDE90F124A
:106000001BF8010B9047B8F10108F7D2214648462A
:10601000F7E00A21C4F302534FF0000B0891022B62
:1060200004D001CFC117032B09D00AE0FF1D27F0D0
:106030000707F7E8020108E032E01FE020E000B2C5
:10604000C117042B01D140B2C117031E71F1000327
:1060500007DA4FF0000CD0EB0C006CEB01012D23A4
:1060600002E0230504D52B238DF82430012303E01F
:10607000E30701D02023F7E7984658E00A2110E013
:1060800010210EE010204FF0000B08900CE01021C2
:106090004FF0000B44F004044FF00809089103E0AE
:1060A00008214FF0000B0891C4F30253022B04D0D7
:1060B00001CF0021032B06D006E0FF1D27F00707C4
:1060C000F7E8020103E080B2042B00D1C0B24FF028
:1060D000000823072BD5702A07D0DDF820C08CF0EC
:1060E000100C5CEA0B0C05D00EE040238DF8243038
:1060F000012308E050EA010306D030238DF8243054
:106100008DF8252002239846DDF820C08CF0080C7D
:106110005CEA0B0C0BD150EA010301D1630706D5F1
:1061200030238DF824304FF00108A9F10109582AD5
:1061300004D038A20B9208AA0A920BE03AA2F9E71F
:106140005B46089AFEF735F90B9B9B5C0A9A521E38
:106150000A92137050EA0102F2D10A98ADEB0000E6
:1061600000F1200B600702D524F4803401E04FF0E9
:106170000109D94502DDA9EB0B0000E0002000EB8E
:106180000B0141440890AAEB010AE00306D4DDE9C3
:106190000F232146504600F063F806444FF00009F3
:1061A00008E009A911F80900DDE90F12904709F18B
:1061B0000109761CC145F4DBE0030CD5DDE90F23B2
:1061C0002146504600F04CF8064404E0DDE90F1289
:1061D00030209047761C0899481E08900029F5DC6D
:1061E00008E00A980A990078491C0A91DDE90F1223
:1061F0009047761CBBF10001ABF1010BF1DC2146AD
:106200005046DDE90F2300F019F806446D1C1BE62B
:10621000092801003031323334353637383961627C
:106220006364656600000000303132333435363740
:106230003839414243444546000000002DE9F04111
:10624000044600251E461746880404D405E0394656
:106250002020B0476D1C641EF9D52846BDE8F081AA
:106260002DE9F041044600251E469046C80301D59D
:10627000302700E02027880404D505E04146384651
:10628000B0476D1C641EF9D52846BDE8F0814A6808
:10629000002A06D00A68531C0B6010704868401E24
:1062A00048607047800701D0002070470120704788
:1062B00040680068401E084201D10120704700205C
:1062C0007047C3688B4206D811440069491E814259
:1062D00001D80120704700207047000070B5114EB2
:1062E000746AB56C03F056F9316B0844621A29449C
:1062F000814200D10022082302F0F0FC054628006C
:1063000000D070BD03F046F90022214602F01EF8CD
:10631000B16A814203D101213162F061B461284642
:1063200070BD0000D40F002090B000226B461146D3
:1063300002F03FF801460548007828B1684604F0AD
:10634000EDFD642003F0FAF8FFF738FB2801002088
:106350002DE9F04707460D4690461E4E708885424F
:1063600035D84FF6FF794C46002000F0FBFE96F83A
:1063700000A0707802F0DCFD504501D1012100E061
:10638000002121B97478707802F0D2FD707000207D
:1063900000F0EAFE4C4518D0B16841F834806FB186
:1063A00065B17188F0682A4604FB01003946FDF7A3
:1063B000B9FFB06800EBC400858003E001EBC401C5
:1063C000002088800020BDE8F0870420FBE709203A
:1063D000F9E70000F000002010B50E4C0FE0227825
:1063E0006188E06802FB0100A36803EBC2018988B1
:1063F00053F832209047207802F09AFD20702078E0
:106400006178814201D1012000E000200028E6D01F
:1064100010BD0000F000002010B54B1C4FF6FF74BB
:1064200004EAC30493070CD0002363B1074B9A60BE
:106430002244DA6000225A701A7058809980002035
:1064400010BD0123F1E7072010BD0000F00000207F
:1064500070B5054600F054F9044605E0294620468B
:1064600001F002FF20680468002CF7D170BD70B500
:1064700000F046F905460CE02E7A002405E021469E
:10648000284600F0B8FC641CE4B2B442F7D3286894
:106490000568002DF0D170BD70B500F031F90546EA
:1064A0000DE02E7A002406E000222146284600F066
:1064B000E4FC641CE4B2B442F6D328680568002DFD
:1064C000EFD170BD70B50546062100F019F90446FC
:1064D00008E02946204601F0C7FE0146062903D1FF
:1064E00020680468002CF4D1084670BD2DE9FC41F9
:1064F00006460F46154634680C34207DC00715D07B
:10650000002000F02FFEE06E98B1A84200D80546AA
:106510002A463846A16EFDF705FFE06E401BE06697
:10652000A06E2844A0666567002405E00820BDE849
:10653000FC81A06928B11124002000F015FE20463E
:10654000F5E7A761E561304601F069FF0549896912
:1065500000910194694600F0A5FA0446002CEBD1A5
:106560009224E9E71CBF0F000068D0F88000704754
:106570003EB50D461446016891F8201001F0010166
:1065800000290BD001F042FFA10609D000210291A1
:1065900000950194694600F0AFFA3EBD08203EBD6B
:1065A0000449896A029100950194694600F0A4FAB1
:1065B0003EBD00001CBF0F00F8B5064600250FE0E9
:1065C000002405E0007800F085FA08B11120F8BD3C
:1065D0002146641CE4B2384600F098F80028F1D156
:1065E00029466D1CEDB2304600F0A2F8071EE7D137
:1065F00000250DE0002403E00078314600F06FFA3A
:106600002146641CE4B2384600F080F80028F3D13B
:1066100029466D1CEDB2304600F08AF8071EE9D11C
:10662000074800E0086801680029FBD106600548BA
:10663000806900906946304601F016FEF8BD000002
:10664000800000201CBD0F002DE9F04F87B00446EC
:10665000DDF840B08846924699460025059500260B
:1066600000E0761C6068012300224768214605A8E7
:10667000B8470028F5D12846049500270025029048
:106680003AE06068012304AAD0F804C0214602A8B9
:10669000E0476068012301AAD0F804C0214602A89F
:1066A000E0479DF80400404519D1554515D19DF8A6
:1066B0001000CBF8000089F8000009F1010202F88F
:1066C000018B60689DF81030214645689B1E02A82A
:1066D000A847002007B0BDE8F08F6D1CEDB26068E0
:1066E0009DF8103021469B1ED0F804C0002202A85D
:1066F000E0479DF810000744B742C2D30520E9E700
:1067000001484068704700007C00002042788A42BF
:1067100001D80020704782781044084470474278BE
:106720008A4201D80020704782781044084470479C
:10673000027A8A4201D800207047093001EB4101FA
:1067400008447047027A8A4201D800207047093015
:1067500001EB41010844704702484078002800D00E
:10676000012070477C0000200148806870470000CD
:106770007C00002010B5002000F080F9BDE810403A
:10678000802000F07BB910B5002000F079F9BDE859
:106790001040802000F074B970B502460D46062402
:1067A00028780B2832D007DC07285AD2DFE800F01F
:1067B000590D1113592948000C2829D00D282CD027
:1067C0000E2838D085284CD112E0032004F076FE44
:1067D00047E0002445E0334802F0B9FB30B13248CD
:1067E00001210160BFF36F8FBFF34F8F002438E0AA
:1067F0002C48001F0078032833D1042004F05EFEEB
:106800002FE0104600F06CF804462AE0002428E04F
:10681000002004F053FE002423E024480068C0F365
:10682000000018B1022004F049FE02E0012004F04B
:1068300045FE002415E0012004F040FE002410E095
:10684000E87803280DD01749091D0A682AB10023EA
:106850000B6049689047044600E00E241CB103F029
:106860005FFC204670BD04F0FFFD28B1A878002829
:10687000F7D103F018FCF4E74FF08051D1F8300164
:1068800008280AD0002010B1D1F8340138B1002016
:106890000028E6D103F004FCE3E70120F3E7012040
:1068A000F6E70000980000205C70024038040040C9
:1068B0000146014A05CA1047B811002070B50546C7
:1068C0000C4603F0E7FBA84201D0102070BD03483E
:1068D00006CCC0E90212002070BD00009400002028
:1068E0007FB50546062405208DF804000DF105004E
:1068F00003F0EEFB04F0B8FD2D49002008609DF880
:10690000050000F01F0030B1012810D0022829D066
:1069100003283AD135E001A9284604F077F9044666
:10692000062C32D101A8FFF7CDFD04462DE09DF8DD
:106930000900694600F07DFA05464DB101AA9DF8AF
:106940000010284600F054FA0446062C02D01CE041
:1069500010241AE001AA9DF80010284604F010FA4D
:10696000044612E09DF80900010703D001A900F0D8
:106970005DF80446062C08D101A804F097F90446F6
:1069800003E001A8FFF79EFD044624B103F0C8FB15
:1069900004B0204670BD04F067FD30B103F07AFB0F
:1069A0000028F5D103F07FFBF2E703F079FBEFE776
:1069B0009C000020FEB50E461446C088A04201D2BD
:1069C000054600E02546844207D2802003F070F996
:1069D000B4FBF0F100FB114068B100200096019576
:1069E0000290002000F0BEFB6946802000F084F891
:1069F000044614B106E00120F0E705498020FFF7C6
:106A00005DFF0446002000F0AFFB2046FEBD000005
:106A100060BD0F00002801D0402101600048704790
:106A20000C12002002F0E8BF03F01AB810B50C46B3
:106A3000010600F00F0201D5092A03D301060AD48A
:106A4000092A08D200F00AF8006820B12146BDE802
:106A5000104001F009BC102010BD0000010600F03C
:106A60000F0003D5044901EBC000704702494831CB
:106A700001EBC000704700007011002003F068B8FF
:106A800010B5044604F00F01082905D2204603F092
:106A900085F8204603F03EF92046BDE8104003F09B
:106AA0008BB8000070B504460D46204603F0C6F8CA
:106AB00028B107480078022803D0082070BD0820BC
:106AC00070BD29462046BDE8704003F0B9B800000B
:106AD0007C00002010B5FFF7C1FF006810BD10B5A5
:106AE0000C46FFF7BBFF04601CB161680968416098
:106AF00010BD0021416010BD70B504460D46204612
:106B000003F09CF828B107480078022803D0082039
:106B100070BD082070BD29462046BDE8704003F0D6
:106B200029B900007C000020017805290AD1074915
:106B30000968C9B2054A121F1268D2B212B90529F2
:106B400000D10348034909680847000084740240E3
:106B50003ABD0F000012002070B505469D4C287804
:106B6000227809287ED008DC09287CD2DFE800F0F2
:106B7000879FE6B1C7FDFC9EFB0082282ED017DC64
:106B80000A2871D00F2870D0802842D081286AD17D
:106B90009148FFF78DFE9048FFF75AFC0D2004F056
:106BA0000DFFFFF764FCFFF7E5FDA06870B90AE090
:106BB000832843D084284CD0852877D12846BDE847
:106BC0007040FFF775BE8548007A00B1012003F0E0
:106BD000ABFABDE87040012004F0D6B9FFF747FCDE
:106BE00003F0CEFA002004F0CFF97B48401CFFF7F9
:106BF0002FFC7948401CFFF75BFE0E2004F0DEFE00
:106C0000207800F075FA002850D0BDE8704002F0FE
:106C100057BE052A08D0062A0BD0072A46D1BDE860
:106C20007040022004F0B0B9BDE87040022004F0CA
:106C3000ABB9BDE87040082004F0A6B9032A35D1ED
:106C400003F0BCFA002831D0BDE87040042004F005
:106C50009BB9032A05D103F0B1FA10B1042004F066
:106C600093F903E0A6E021E0ACE075E003F032FB2D
:106C700000281BD0BDE87040062004F085B9032A27
:106C800001D0082A03D15448801CFFF765FF00207B
:106C900004F094FEFFF768FD044605E0294620460F
:106CA00001F0E2FA20684468002CF7D170BDFFF7CC
:106CB000DEFBFFF768FD022004F066F9012004F016
:106CC0007DFE2846FFF7F4FD2846BDE87040FFF73B
:106CD000BFBB082A0DD0052004F056F9032004F0AC
:106CE0006DFE2846FFF7E4FD2846BDE87040FFF73B
:106CF000AFBB022004F048F903F06CF9EEE7032083
:106D000004F05CFE3448C01CFFF7D2FD3248C01CC2
:106D1000FFF79EFB2078062806D0082809D0BDE89A
:106D20007040022004F030B9BDE87040072004F044
:106D30002BB9BDE87040022004F026B9032004F00E
:106D400023F9022004F03AFE2846FFF781FB28468B
:106D5000BDE87040FFF7ACBD0F2004F02FFE2846C1
:106D6000BDE8704002E01DE007E001E0FFF770BB06
:106D70002846BDE87040FFF79BBDA878FFF76EFE80
:106D8000D0E9003229461846904700288ED0A878CE
:106D900001078BD000F00F01082987D2BDE87040B1
:106DA00002F092BF082004F009FE2846BDE87040BA
:106DB000FFF74EBB092004F001FE2846BDE87040F5
:106DC000FFF746BB0A2004F0F9FD2846BDE87040F5
:106DD000FFF73EBB7C0000202DBD0F0000120020FD
:106DE000FFF7A2BE0148FFF79FBE00001CBD0F00C9
:106DF000114601F039BA70B504460D466068C268A4
:106E0000002A02D029462046904720462946FFF70F
:106E10008FFC06467578002408E021463046FFF7CF
:106E200075FC0078FFF72AFE641CE4B2AC42F4D390
:106E300070BD2DE9F04107468846FFF761FC054625
:106E400017E02E7A002410E021462846FFF770FC58
:106E50000078B84207D1B8F1000F01D088F800409F
:106E60002846BDE8F081641CE4B2B442ECD3286843
:106E70000568002DE5D10020F3E770B505460E4604
:106E80001446062069688B68002B03D022463146E1
:106E900028469847062803D1284631460CB10720DA
:106EA00070BDFFF745FC06467578002408E02146D2
:106EB0003046FFF72BFC0078FFF7E2FD641CE4B2DC
:106EC000AC42F4D3002070BD034600205A6812691A
:106ED000002A01D018461047704700002DE9F843FA
:106EE00004462B4803F07CF800284DD1294908704E
:106EF0004860886048212848FDF73CFA2648482128
:106F00004830FDF737FA2448244E80303CB10ECC8F
:106F100010300EC020489030016831B107E0D6E94A
:106F20000E23716B10300EC0F4E71D490160002084
:106F300002F020FD18B1852801D0FFF7F5F9194FAF
:106F400000250DE0002403E000783946FFF7C7FD77
:106F50002146641CE4B24046FFF7D8FB0028F3D179
:106F600029466D1CEDB23846FFF7E2FBB0F1000890
:106F7000E8D1706800906946384601F075F904461A
:106F800024B103F099F92046BDE8F8830020FBE71F
:106F9000E16D0F007C000020701100201CBD0F006F
:106FA000596B0F00A0BD0F00002806D0012808D0A3
:106FB00002280AD10548FFF7B7BD04480838FFF793
:106FC000B3BD0248001FFFF7AFBD704746BD0F00BD
:106FD00010B503F051F810B103F044F808B10820DF
:106FE00010BD044802F0D6FC08B1FFF79DF900205F
:106FF00010BD00004CBD0F0070B50D46104901EBEF
:10700000800454F825000178002906D00020FFF7FD
:1070100001FD002254F8251006E0801C70BD521CB2
:10702000D2B220F81230491C0B78002BF7D1022184
:1070300001EB4201C9B241F44071018070BD000012
:10704000A400002000B585B00848416889B241F429
:1070500040430068009006A20D2101A8FEF7BEFE85
:1070600001A803F081FF05B000BD0000A4000010DE
:10707000253034582530385800000000074804E017
:107080000168C1F30001002907D00168C1F3400184
:107090000029F5D00248FFF747BD7047380400408B
:1070A00021BD0F0008B50348806800906846FFF7CF
:1070B0003BFD08BD1CBD0F00002804D000210628A0
:1070C00005D30020704700210846FFF795BF064A08
:1070D000105C28B1054A52F820201AB1FFF78CBF86
:1070E000002070470020704707BE0F00A40000205A
:1070F000092818D2DFE800F00507090B0D0F11135E
:1071000015000020704700207047012070470020C4
:107110007047002070470120704701207047012010
:1071200070470120704700207047092818D2DFE817
:1071300000F00507090B0D0F111315000020704713
:1071400000207047012070470020704700207047E2
:1071500000207047002070470020704701207047D2
:107160000020704700F002B800F008B872B602487C
:107170000168491C01607047140100200349086838
:10718000401E0860002800D162B67047140100203C
:10719000102802D31038C0B2704740F0800070470A
:1071A00070B50B251048466A01468C6CC06AAC2845
:1071B00001D024B106E0486B0444361A02E002F024
:1071C000FDF90446324621460848FDF7E5F800B9C6
:1071D000002535B102F016F83146204602F096FA45
:1071E0000546284670BD0000D40F002000400F0067
:1071F0000348002141808180C180017070470000F8
:107200000800002030B5C1B005460C464FF482712D
:107210006846FDF7AFF81A4908788DF800004A78FB
:107220008DF8012088788DF80200C8788DF8030069
:10723000091D01A8FDF776F89DF803109DF80200DE
:1072400001F0F2FC014669B1684688479DF80100EB
:10725000001DC2B2227069462846FDF763F801207E
:1072600041B030BD02208DF801000C20ADF80400C3
:107270000622227069462846FDF754F80120EFE700
:10728000480100202DE9F041214B224C1D461E787B
:107290006A880627511CED884FF0050C89B2062E2E
:1072A00033D2DFE806F0030E161B242D002159808F
:1072B00010B13046BDE8F08101215980207019706D
:1072C00023E05980A0549880001DD88002201870B7
:1072D0001BE05980A0540320187016E05980A05478
:1072E000988810B1042018700FE01F700DE05980CD
:1072F000A054A94201D11F7007E083F800C004E048
:107300005980A054A94200D11F701878D2E700001C
:1073100008000020480100200249002008700248AF
:1073200002F018BA340000202DA80F0010B505484F
:10733000012101F022FEBFF35F8F08B1002010BDD4
:10734000012010BD2C010020BFF35F8F01490020F8
:10735000086070472C0100200349002008600349A1
:107360004FF480600860704700A5025084E100E09F
:10737000034901200860034980020860704700004B
:1073800000A5025004E100E070B5144600F10805C4
:107390000E462068202802D248F2145070BDFFF734
:1073A000C5FF90B1FFF7E4FF31462846FEF74AF9E2
:1073B0000546FFF7D1FFFFF7C7FF284601F05CFC49
:1073C0000028EBD12021216070BD48F2045070BD2F
:1073D00010B50830FEF766F9BDE8104001F04CBC6E
:1073E0002DE9F0470E46144600F10809FFF79EFF0D
:1073F000B0B1FFF7BDFF4FF480584546AC4200D80E
:1074000025462A4631460E48FCF78CFF2A460C4991
:107410004846FEF761F90746641B2E4427B105E094
:1074200048F20450BDE8F087002CE6D1FFF794FF46
:10743000FFF78AFF3846BDE8F04701F01DBC0000A9
:10744000601E002070B5074800250560BFF35F8F00
:10745000054C01202060FEF70FFA2560BDE8704062
:1074600001F08CBC2C01002000A502500149002035
:107470000860704700A502504360CA699A420ED363
:107480008A690260886918448861086F184408672F
:10749000C869C01AC861002800D00120704701F1F6
:1074A000280202608B670020704770B505460C46C5
:1074B000284600F005FFA178884201D1002070BD68
:1074C00008060DD5E07818B1032807D0032070BD59
:1074D0000121284604F06CFA002070BD002070BD28
:1074E000E07828B101280DD003280BD0032070BD0F
:1074F000284600F0C5FD04460021284604F058FA4D
:10750000204670BD002070BD10B500240A780F2AF7
:1075100017D2DFE802F017081717160B0F1616130D
:1075200016171717170000F09DFD0BE003F010FC75
:10753000044607E0FFF7B9FF044603E000F092FDC0
:1075400000E00624204610BD2DE9FF5F07460C46EB
:10755000207AFB4D28700092002601960293039733
:10756000039840F24532022701684FF0010AA1F268
:1075700045304FF024084FF005094FF0030B9142BE
:1075800076D04ADC40F22732A1F22730914270D007
:1075900027DC40F21732A1F2173091426AD013DC97
:1075A0004FF4457081426ED007DCE9B3A1F540711C
:1075B000123979D0012960D190E0A1F540711539D7
:1075C0006FD0012959D1D3E009286BD004DC012800
:1075D00069D0022851D11DE10A2879D00F284CD159
:1075E00064E10E2875D00EDC072873D006DC012874
:1075F00071D0052870D006283FD1B9E10C286CD095
:107600000D283AD1FCE11538092836D2DFE800F020
:10761000F535353535F4F3F2F100132874D00FDC6D
:10762000A0F10300102800E02FE026D2DFE800F0F0
:10763000F1F0EFEEED2525ECEBEAE92525E8E7E6AC
:10764000372878D00CDC292876D004DC142874D0B4
:10765000282812D1D4E32D2870D032280DD1FDE393
:1076600044286CD007DC3E286AD03F2805D1F6E3D9
:1076700069E231E190E0492879D003980660002062
:1076800004B0BDE8F09F40E00EE0039B08211971B3
:107690000299002908D8039940F2123008600120AD
:1076A000EEE74EE0CFE08EE0009919B10399009B20
:1076B00009791970CDF804A0039B0B211971029967
:1076C00001290BD8039940F2133008600120D7E755
:1076D000D0E0ABE163E117E134E17BE1009929B14E
:1076E0000399DDE9003C097903F80C100199491C64
:1076F0000191039B217D1971DDE90113994204D3A6
:10770000039908600120BBE747E3009820B1039884
:10771000DDE900130079C8540198401C01900398DA
:107720000771DDE9010188420BD3039940F215305E
:1077300008600120A4E7CFE379E345E396E3F8E3AB
:10774000E1E3009820B10398DDE900130079C85403
:107750000198401C019003980771DDE901018842FE
:1077600006D3039940F216300860012088E7FDE354
:10777000009820B10398DDE900130079C8540198FE
:10778000401C019003980771DDE90101884203D391
:1077900003980260012073E7009820B10398DDE9A7
:1077A0000012007988540198401C01900399607E72
:1077B0000871DDE90101884205D303994FF4467051
:1077C000086001205CE7009820B10398DDE9001211
:1077D000007988540198401C019003980671DDE9F6
:1077E0000101884216D3039940F219300860012044
:1077F00046E791E179E162E14AE12DE1B6E29EE2FC
:1078000086E26EE257E240E228E210E2F8E1E0E1CF
:10781000C8E1B0E1009820B10398DDE900120079D9
:1078200088540198401C01906E70D1E3039909209F
:107830000871DDE90101884205D303994FF44870CE
:10784000086001201CE7009820B10398DDE90012D0
:10785000007988540198401C019003990420087114
:10786000DDE90101884205D3039940F22130086027
:10787000012005E7009820B10398DDE900120079A6
:1078800088540198401C019069782046FEF75AFF01
:107890006860007803990871DDE90101884205D329
:1078A000039940F2263008600120E9E6009820B1F3
:1078B0000398DDE90012007988540198401C01907A
:1078C00003980671DDE90101884205D3039940F26E
:1078D000273008600120D3E6009820B10398DDE945
:1078E0000012007988540198401C01906868407823
:1078F00003990871DDE90101884205D303994FF42A
:107900004A7008600120BBE6009820B10398DDE9C9
:107910000012007988540198401C01906868007832
:10792000217D884246D103980771DDE90101884233
:1079300008D303994FF44B7008600120A0E60000C3
:1079400018010020009820B10398DDE900120079A9
:1079500088540198401C019003980771DDE90101EA
:10796000884205D3039940F22D300860012087E654
:10797000009820B10398DDE900120079885401983D
:10798000401C01900399607E0871DDE90101884285
:1079900005D3039940F22E300860012070E600986C
:1079A00020B10398DDE90012007988540198401C49
:1079B000019045E0A17D884242D103990A200871D7
:1079C000DDE90101884205D3039940F233300860B4
:1079D000012055E6009820B10398DDE900120079F6
:1079E00088540198401C019003980671DDE901015B
:1079F000884205D303994FF44D70086001203FE69B
:107A0000009820B10398DDE90012007988540198AC
:107A1000401C019003980671DDE90101884205D3FD
:107A2000039940F235300860012029E6009820B122
:107A30000398DDE90012007988540198401C0190F8
:107A400003980671DDE90101884205D303994FF4DB
:107A50004F700860012013E6009820B10398DDE91B
:107A60000012007988540198401C019068680078E1
:107A7000217D88427ED1039880F80490DDE90101E0
:107A8000884205D3039940F2413008600120F7E5B0
:107A9000009820B10398DDE900120079885401981C
:107AA000401C0190039880F80480DDE901018842C0
:107AB00005D3039940F2423008600120E0E50098C8
:107AC00020B10398DDE90012007988540198401C28
:107AD000019003980671DDE90101884205D30399FD
:107AE00040F2433008600120CAE5009820B10398B5
:107AF000DDE90012007988540198401C0190039937
:107B000010200871DDE90101884205D303994FF483
:107B1000517008600120B3E5009820B10398DDE9B9
:107B20000012007988540198401C0190039880F855
:107B300004A0DDE90101884205D3039940F24530F4
:107B4000086001209CE5009820B10398DDE900124F
:107B5000007988540198401C0190039880F80490A3
:107B6000DDE90101884206D303994FF452700860A1
:107B7000012085E532E1009820B10398DDE900128B
:107B8000007988540198401C0190039880F8048083
:107B9000DDE90101884205D3039940F249300860CC
:107BA00001206DE5009820B10398DDE9001200790D
:107BB00088540198401C0190039880F804A0DDE9E6
:107BC0000101884205D3039940F24A300860012040
:107BD00056E5009820B10398DDE900120079885439
:107BE0000198401C0190039880F804B0DDE9010180
:107BF000884205D3039940F24B30086001203FE5ED
:107C0000009820B10398DDE90012007988540198AA
:107C1000401C01900399A07D0871DDE901018842B3
:107C200005D303994FF453700860012028E50098AC
:107C300020B10398DDE90012007988540198401CB6
:107C40000190039904200871DDE90101884205D300
:107C5000039940F24F300860012011E5009820B1EF
:107C60000398DDE90012007988540198401C0190C6
:107C7000039880F80480DDE90101884205D3039967
:107C80004FF4547008600120FAE4009820B1039882
:107C9000DDE90012007988540198401C0190039896
:107CA0000771DDE90101884205D3039940F25130A3
:107CB00008600120E4E4009820B10398DDE9001297
:107CC000007988540198401C019003980771DDE900
:107CD0000101884205D3039940F252300860012027
:107CE000CEE4009820B10398DDE9001200798854B1
:107CF0000198401C0190039880F80490DDE901018F
:107D0000884205D3039940F2553008600120B7E45A
:107D1000009820B10398DDE9001200798854019899
:107D2000401C0190039880F80480DDE9010188423D
:107D300005D3039940F2563008600120A0E4009872
:107D400020B10398DDE90012007988540198401CA5
:107D50000190039906200871DDE90101884205D3ED
:107D6000039940F257300860012089E4009820B15F
:107D70000398DDE90012007988540198401C0190B5
:107D80000399207D0871DDE90101884205D303993B
:107D90004FF456700860012072E4009820B10398F7
:107DA000DDE90012007988540198401C0190039984
:107DB000A07D0871DDE90101884205D3039940F2F5
:107DC0005930086001205BE4009820B10398DDE998
:107DD0000012007988540198401C0190686840782E
:107DE000A870EE70ECE0039907200871DDE901014D
:107DF000884205D3039940F26D30086001203FE4CA
:107E0000009820B10398DDE90012007988540198A8
:107E1000401C0190039880F80490DDE9010188423C
:107E200005D3039940F26E300860012028E40098E1
:107E300020B10398DDE90012007988540198401CB4
:107E40000190E9786868FEF76AFCA86000780399F9
:107E50000871DDE90101884208D301E022E069E010
:107E6000039940F272300860012009E4009820B1C3
:107E70000398DDE90012007988540198401C0190B4
:107E800068680078217D884217D1039880F804B093
:107E9000DDE90101884205D3039940F2773008609B
:107EA000012014E4009820B10398DDE90012007964
:107EB00088540198401C019018E0A17D884215D19A
:107EC00003980771DDE90101884205D303994FF456
:107ED0005F700860012016E4009820B10398DDE986
:107EE0000012007988540198401C019003994020A9
:107EF0000871DDE90101884205D3039940F283301E
:107F00000860012016E4009820B10398DDE9001212
:107F1000007988540198401C019003980671DDE9AE
:107F20000101884206D303994FF461700860012073
:107F30001CE41EE0009820B10398DDE900120079EE
:107F400088540198401C019068680078217D88421F
:107F50001AD1206A039900780871DDE9010188428D
:107F600007D3039940F28930086000E01BE001204C
:107F700011E4009820B10398DDE9001200798854DB
:107F80000198401C019018E0A17D884215D103980A
:107F90000671DDE90101884205D3039940F28E3074
:107FA000086001200EE4009820B10398DDE900127A
:107FB000007988540198401C0190E878401CE870D2
:107FC000E878A9788842FFF40EAF6878401C6870A2
:107FD000687829788842FFF429AC039940F29930F7
:107FE0000860012004E4002801D0032070470868DD
:107FF0000C300178202901D006207047D0F80210FB
:10800000C160C1880182017A81740020704700003C
:1080100030B585B0054628680C308A780270C97979
:108020004170002103910491811C029140780390DA
:108030000020FFF797F802A90020FEF75DFD044637
:1080400044B9074800680090019569460020FEF792
:1080500035FC04460020FFF787F805B0204630BD08
:108060001CBF0F0000680C30002181828161016219
:10807000C16601674167816700F128018166704729
:108080002DE9FC4707463C680C34384600F0C7F938
:1080900006463848806800900194E0690025E8B100
:1080A000D4F87890C846484500D28046424604F14C
:1080B0002801A069FCF736F9206F40446067256706
:1080C000A9EB0800E06604EB08002830A066206AEF
:1080D000B0B3616AC4E9060125622DE0206F6067D4
:1080E0002567E566206A48B1616AC4E90601256230
:1080F00069463046FEF7D6FCBDE8FC87A561002046
:10810000FAE7E1698A421ED3A36E0A461946A069BE
:10811000FCF708F9E169E06E401AE066A06E0844D9
:10812000A06661670021384603F042FC206A40B136
:10813000616AC4E906012562E26E002AE1D110E01D
:108140000EE0A5610DE0A16EA069FCF7EBF8E06E12
:108150002067E169091AE161A1690844A06100E0B2
:10816000A561A06920B169463046FEF79BFCC3E7D4
:108170000020C1E71CBF0F004360CA699A4204D3C4
:108180008A6902600B67CB6103E001F1280202609B
:108190008B670020704700002DE9F04192B04FF44A
:1081A0008068002928D0012906D000252948022905
:1081B00005D0032900D1057012B0BDE8F08101247B
:1081C0000470424624492548FEF790F9244880214E
:1081D00001700521417085700721C17004714471DF
:1081E00006218171C571047212B00146BDE8F041EB
:1081F00009221A48FEF7BCB91848FEF7B5F905463A
:108200000024154E174F18E0305DFFF73BF80628A5
:1082100012D111A901A8FEF7F5FF58B19DF844103D
:1082200001A802F07BFE387820B1642001F086F9C5
:10823000FDF7C4FBFEF7DCFF641CAC42E4D3142062
:1082400001F07CF9424604490448FEF74FF9002842
:10825000D2D0B1E728010020D515002088BF0F003B
:10826000D519002012000020426812681047000053
:1082700070B50546002D01D0064C05E0054C083CC4
:1082800002E0416828468847204600F08BFD002820
:10829000F7D170BD8012002070B504460126074D4D
:1082A000002C02D16E70FFF7E3FF012C05D1AE70F8
:1082B000BDE870400120FFF7DBBF70BD70120020E9
:1082C00010B50021FEF73EFA0021FEF728FA0078EB
:1082D00010BD00002DE9F0411A49486800282BD054
:1082E0000768DFF86480D8F800408E68A01B20F093
:1082F0007F45ED1C887808B902F0BCFABD4200D277
:108300003D46A81920F07F400F4A3C321060D8F853
:108310000010091B21F07F41C91C001B20F07F4089
:1083200081420DD9D8F8000010602F2002F0B4F976
:10833000BDE8F04102F0BABFBDE8F04102F0B4BAC6
:10834000BDE8F0810001002004150140F0B54FF0B8
:10835000FF37002A04D01268D24300240B4E10E0ED
:108360003A46FAE7035D5A400823D50701D03D4657
:1083700000E00025354085EA52025B1E002BF4D157
:10838000641C8C42EED3D043F0BD00002083B8EDD6
:1083900010B504462068401C07D0204602F014FBAC
:1083A0002168814201D1012010BD002010BD0120B3
:1083B000704730B5C5B042904391449200208DF88B
:1083C000060010248DF8074080208DF804000C2052
:1083D0008DF8050042A802AA23C823C2224601A99B
:1083E0001846FBF79FFF45B0204630BD002808D057
:1083F0000549C84202D148F24250704748F216502F
:1084000070470020704700007CF70FFF10B5012176
:10841000FEF798F90021FEF782F9007810BD10B53B
:108420000121FEF78FF90121FEF779F9007810BDDF
:108430002DE9F0470746387902283AD1284D696975
:1084400011B1012903D004E0254C183401E0244C7B
:108450002434244EB16821600022F068FFF776FFD3
:10846000606031794FF001094FF0000819B301291C
:108470002BD002292ED003291BD1AC20A060F0699B
:1084800068633069E860164820213830FBF772FFD6
:108490001348FF225C307169FBF765FFC5F8308037
:1084A000F068A864002001F0A1F987F8018086F83F
:1084B0000290BDE8F087C4F808903069A860686948
:1084C0000128E0D1C5F82080DDE7A520A060F06993
:1084D0006863D8E7AA20A0603069E860D3E70000AD
:1084E000D40F00201000002010B5FFF760FF01F04E
:1084F00035F830B10548006810F0B10F03D0012005
:1085000010BD012010BD002010BD00001C05004062
:108510000549086810F0B10F04D00868C0B220F017
:10852000B1000860704700001C0500404368064920
:108530000022002B05D001234B7002214170828064
:1085400070474A70F9E700001000002010B504469B
:1085500001200A4991F90110002902D0012905D012
:1085600008E02079611D02F041FF03E02079611DE0
:1085700002F0A8FE02216170A08010BD1000002052
:1085800010B504460120094991F90110002902D0D3
:10859000012903D005E003F019FA02E002F018F90E
:1085A00080B202216170A08010BD00001000002088
:1085B0004169002901D0C068084770477047000032
:1085C00010B50446032C06D0042C04D0062C08D089
:1085D000072C08D105E008494FF4701000F020FD89
:1085E00001E0FEF799FE05494968002903D02046BD
:1085F000BDE81040084710BD6D8D0F00340000200D
:1086000010B50446062C02D1002001F025F90449DA
:108610000968002903D02046BDE81040084710BD76
:108620007400002070B504462279402A01D00F2042
:108630001DE01148611D0546FBF774FE2021284608
:1086400000F06FFF0C482021203000F06AFF00206E
:1086500001F0CCF880B208B1092008E040232A4696
:108660000649074800F05CFE80B200B16420022198
:108670006170A08070BD000030110020340800201F
:10868000B8BF0F0010B50E4A002311785478A142EC
:1086900012D0491CC9B21170022900D113700849C7
:1086A00013780C3151F8231001609068084420F0D1
:1086B0007F409060012010BD0360002010BD0000CD
:1086C000000100206FEA0061C90F61F31F107047BD
:1086D000010601D5044901E00349903900F00F007B
:1086E00001EB001070470000141300202DE9FC413D
:1086F00080460D4616461F4600240D4800F02AFC11
:1087000038B11120BDE8FC8105EB043001F046FED4
:10871000641CB442F8D1064800F016FC2B46002237
:1087200002214046CDE9006700F03CFA0020E9E76D
:10873000240100204FF08050D0F83011082902D1D8
:10874000D0F8340108B100207047012070474FF085
:108750008050D0F83011082902D1D0F8340108B186
:1087600000207047012070474FF08050D0F8301142
:10877000082902D1D0F8340108B100207047012047
:1087800070474FF08050D0F83011082906D1D0F84A
:10879000340128B1012805D0022805D001207047F6
:1087A0000120704701207047012070474FF0805032
:1087B000D0F83011082906D1D0F8340128B10128A9
:1087C00005D0022805D00120704701207047012004
:1087D0007047012070474FF08050D0F830110829C1
:1087E00006D1D0F8340128B1012805D0022805D0DF
:1087F0000120704701207047012070470120704719
:108800004FF08050D0F83011082902D1D0F834014F
:1088100008B10020704701207047000010B502F039
:10882000FBFE8020FFF754FF817B012403290CD03D
:108830000068002813D18020FFF744FF8440E14303
:10884000BDE81040064800F088BB8020FFF73AFFE3
:108850008440E143BDE81040014800F07EBB10BDFC
:10886000CC000020812001F0FDBD822001F0FABD86
:10887000832001F0F7BD842001F0F4BD852001F0D4
:10888000F1BD862001F0EEBD872001F0EBBD0000B8
:1088900038B5882402F0C0FE2046FFF719FF817B1F
:1088A0000125032915D00068002811D12046FFF7C3
:1088B00009FF8540E9430C4800F04FFB0B488068F6
:1088C00000908DF80240084968460C39496888478D
:1088D00038BD2046FFF7F6FE8540E943BDE8384045
:1088E000014800F03ABB0000CC00002010BE0F0091
:1088F00038B502F091FE0020FFF7EAFE817B0124EB
:10890000032905D0006868B1BDE8384001F0CBBB51
:108910000020FFF7D7FE8440E143BDE838400A4815
:1089200000F01BBB0020FFF7CDFE8440E14306486A
:1089300000F013FB0548C0680090034968460C39F5
:108940004968884738BD0000CC00002010BE0F00E9
:10895000012001F0ADBD022001F0AABD032001F00D
:10896000A7BD042001F0A4BD052001F0A1BD062093
:1089700001F09EBD072001F09BBD000038B5082422
:1089800002F04AFE2046FFF7A3FE817B032915D0A3
:108990000068002812D12046FFF794FE0121814093
:1089A000C943074800F0D9FA0648406900908DF89D
:1089B0000240034968460C394968884738BD0000C1
:1089C000CC00002010BE0F0070B51348046804608E
:1089D000BFF36F8FBFF34F8F01F07EFA38B10F4AAC
:1089E000106920F001110C4300F001101061012604
:1089F0000CE094FAA4F0B0FA80F52846FEF7C8FB24
:108A000006FA05F18C43294602F098FF002CF0D1BC
:108A1000BDE8704002F01ABE6C740240C000002035
:108A200010B5054CA078FFF74DFE0146A078BDE8D3
:108A3000104002F083BF0000C0000020F8B51B48C2
:108A40000068C6B21A4CA078FFF73CFE012707FA6F
:108A500000F52089E168C04380B20843054202D096
:108A6000A07802F0BFFE06F08000A0700020FFF7A3
:108A700029FE07FA00F63D468020FFF723FE05FA9F
:108A800000F006430A48F1430C3000F066FA8020FB
:108A9000FFF718FE8540A0680543A5600548006AF9
:108AA0000090616868468847F8BD00008074024005
:108AB000C000002010BE0F0038B500200090114803
:108AC0000068ADF802008820FFF7FCFD012505FADB
:108AD00000F40C486038006888B1C10300D500205C
:108AE000401C04D00820FFF7EDFD85402C430649CB
:108AF00088682043886049686846884738BD4FF0D9
:108B0000FF30EDE720750240C000002070470000F4
:108B1000F8B518480468204601F012FDBFF36F8FC6
:108B2000BFF34F8F144E154DE00506D50120687038
:108B3000706A0090696868468847A0054FF0000792
:108B400005D56F70B06A009069686846884760050F
:108B50000ED5687800280BD06F7001200849086096
:108B6000582001F0FFFCF06A009069686846884769
:108B7000F8BD00000074024010BE0F00C0000020CD
:108B80000875024008B505490020487088700448FF
:108B90004068009049686846884708BDC0000020CA
:108BA00010BE0F002DE9F04387B00446DDE90E89C1
:108BB0000D4617461E46A06800280ED0182101A8B1
:108BC000FBF7D8FB8DF8045003960497CDF814807A
:108BD000CDF81890A16801A8884707B0BDE8F083D8
:108BE000F0B500240F4F19E01D68854203D91968BC
:108BF000081A1860F0BD401B2C4400261E601E465B
:108C0000DD697D60DD684DB101EB040C2CF07F4C1B
:108C1000C3F804C09D601568DD6116607B68002B99
:108C2000E2D1F0BD000100207CB5062400220B4DEE
:108C30000FE005EBC20348CBCDE900369DF80030CC
:108C4000834205D19DF801308B4201D101987CBD52
:108C5000521CA242EDDB00207CBD0000A0BC0F0036
:108C600001490120087070473400002001490120AB
:108C7000087070477000002010B5104B0146C21AF2
:108C800048F2035048F21654994212D006DC59B10A
:108C90000B4A89180AD0012904D110BD0A2A0BD029
:108CA0000D2AFAD0204610BD002010BD48F2015018
:108CB00010BD48F2025010BD204610BD0202F00067
:108CC00000FE0FFF01F07EBC10B501F087FC0249E9
:108CD0000020487010BD0000701200202DE9F04700
:108CE00081468A4616469846CA4502D10020BDE80C
:108CF000F087AAEB0900070B002406F6FF70050BAE
:108D000000F094FAB8452BD2474629E0BD4202D87C
:108D1000A846344601E0B8463C0300224146484696
:108D200000F0C4FC0028E2D1601E00F00300221A0B
:108D3000D21C00235146484600F0CAFC0028D6D178
:108D4000A5EB0805361BA144A2440748016B21444A
:108D50000163002000F04AFD0446200000D0C6E771
:108D6000002ED3D12046C2E7D40F0020FEF7D4BA9C
:108D7000014941600020704754BF0F0001460320A5
:108D8000002904D0052901D148F203507047002082
:108D90007047000002480068002800D0012070479A
:108DA0002401002001460868002801D002680A60FA
:108DB00070470268134602E08A4206D01268002A11
:108DC000FAD103B900230B60016070472DE9F04729
:108DD00005464FF00008384FD7F804A00026DFF80A
:108DE000DC9056E015B12C46E56934E099F80010A6
:108DF00001EB410009EBC000001D491CC9B289F814
:108E0000001099F80220914201D189F8006044686D
:108E10000178012912D0022902D0032939D10AE0B0
:108E2000204602F0B9F908B14FF00108267430E08D
:108E30000674C0697860786858B3F9E7217C41BB53
:108E400081686160C168A1600169E1604069A061F9
:108E5000F87800B166606068B968194B421A22F070
:108E60007F429A4203D2A0681044206009E0081AA9
:108E700020F07F40A168814202D9081A206000E0FA
:108E800026606660A66001202074E661204602F03C
:108E90005FF9002DA6D199F8000099F801108842D9
:108EA000A0D1B8F1000F02D17868504502D001205E
:108EB000BDE8F0870020FBE700010020BC14002083
:108EC000FFFF7F0000F09EF9FDF786FA02F076FEC4
:108ED000F8E7000010B500224FF48051104600F072
:108EE000B3F808B1FDF720FA0E480022C0F57E2144
:108EF00000F0AAF808B1FDF717FA00F0CBFA08B1B4
:108F0000FDF712FAFEF774F90749002008700748C8
:108F100000F004F908B1FDF707FA00F033F800207B
:108F200010BD000000400F0014000020BD850F00A0
:108F300004498988884201D2401C00E00020C0B268
:108F400070470000F0000020002100F006B800216A
:108F500000F009B8012100F00BB808B56A46FBF72C
:108F600076F9009808BD08B56A46FBF770F908BDA8
:108F700008B56A46FBF75EF908BD08B56A46FBF717
:108F80004DF908BD10B54FF4805406494FF0FF323B
:108F90000A60C1F8002100F0C5FB2046BDE8104082
:108FA00000F002B880E100E070B588B005461A48CC
:108FB000C0F57F21002200F047F8EFF30580C0F3F1
:108FC00008002C686D684FF0FF36002282F3148889
:108FD00082F31088002181F3118881F3138890B106
:108FE00020220E496846FBF79DF90695203C202279
:108FF00069462046FBF796F9B21F31462046FBF73B
:1090000009F908B070BD08B02A4631462046BDE8CF
:109010007040FBF7FFB8000000400F00D0BC0F000D
:1090200070B504460E46074D686802F0F7F8002C4C
:1090300006D0324621466868BDE8704002F0E0B8CC
:1090400070BD00004000002070B50B0502D1B0F5E6
:109050007F2F01D9072070BD0AB1062400E0022449
:10906000104E114D3268082A01D3042070BD05EB63
:10907000021303F50063186059609C60521C326053
:10908000521E05EB0212D2F800388342EAD1D2F820
:1090900004388B42E6D1D2F80828A242E2D100205F
:1090A00070BD00003C00002000E0014070B5184D8C
:1090B0000024A868012807D0A52808D0AA280AD02B
:1090C000AC280BD0002070BDFDF708F909E001F0D5
:1090D00037FC012405E0FEF763F802E001F05AFCDA
:1090E0000124284600F07AFA0A49002008700A484C
:1090F00000F07CFB10B10325284670BD0125002C33
:10910000FAD0012000F02AFA0028F5D00225F3E772
:10911000F80F0020700000206D8C0F0070B5304DEE
:109120006860002000F01CFB08B1032070BDFFF751
:10913000BDFF28B1012815D0022806D0032070BD3C
:109140004FF47014FFF7D0F902E04FF4A02401208F
:10915000A8B301250021234A531893F85C0128B1D4
:10916000002506E0FEF7D8F8032070BD491C402911
:10917000F2DB35B140231C4A1C491D4800F0D0F8F1
:1091800005E040231B4A1949194800F0C9F808B105
:10919000032070BD00F04AF801F0C2FBFFF7B8F9F8
:1091A00000F0B2FA08B1032070BD13492046FFF762
:1091B00037FF124800F098FA10B1032070BD01E0AB
:1091C000FFF780FE00F0C4FA08B10320F6E70020A4
:1091D00028700B4800F0BEFAFFF7D4FE0320EDE73D
:1091E00034000020D40F002060BC0F0034080020A1
:1091F000B8BF0F00301100206D8D0F00C1850F002A
:10920000618C0F0010B501F0B9F9002803D0BDE85A
:10921000104002F0DFBC10BD034603488068836045
:109220000A46194601F0ECBF4000002070B50D4D14
:109230002878002815D101F0A1F9012680B10A484B
:109240000468A4F54864962C00DA962402F0C2FC67
:1092500006492046FFF7E0FF05494FF480300860DB
:109260002E7070BD710000200405014015BC0F0078
:1092700000E100E000F180400068002800D00120FB
:10928000704708B500F1804000210160006800903F
:1092900008BD70B50D4604462022294604F1080099
:1092A000FBF740F8202205F1200104F12800FBF72C
:1092B00039F8002070BD00002DE9F8430446DDF8C0
:1092C00020800D4617461E46134820601348012192
:1092D000FFF753FEBFF35F8FC0B10023C3B1FEF7AA
:1092E00047F83B46424605F1080120460096FCF748
:1092F00095F90446FEF730F8BFF35F8F0749002069
:1093000008602046BDE8F843FFF770B80123E5E7A1
:1093100048F20450BDE8F883DD55AABB2C010020BB
:1093200070B506460C4615462146304600F0DFF87B
:1093300000280ED1B2791946284600F0E6F8002838
:1093400007D129462046FFF7A4FF002801D1014993
:10935000216070BD7052464D2DE9F84F6C460546B0
:10936000D4E90A8A0E46174699461649304600F057
:10937000B1F80028A5460FD17068514640794200E7
:10938000404600F0C2F80028A54605D10FB12DB126
:1093900007E0A54648F21050BDE8F88FAAB06D4628
:1093A0005DB182B04B463A4631462846CDF8008042
:1093B000FFF782FF02B0A546EEE748F21550A5463A
:1093C000EAE700007052464D2DE9F0410446DDE920
:1093D000065617469846204600F02EF800280DD174
:1093E00042463946204600F03DF8002806D1324674
:1093F0002946204600F004F80028FFD1BDE8F0819E
:1094000070B504460D461646204602F0C7FB0028FC
:1094100007D13DB160683168C268914205D248F217
:10942000145070BD48F2135070BD8368324629460F
:109430002046BDE87040184710B500280AD061B139
:109440000446616009688847002802D1044820600A
:10945000002010BD48F2015010BD48F2105010BD60
:109460006E52464870B504460D461646204602F038
:1094700095FB00280BD145B156B1606832462946AC
:1094800043682046BDE87040184748F2105070BD50
:10949000002070BD2DE9F0410B480C4E801BC50823
:1094A0000B4F01203870002406E006EBC400006872
:1094B0008047002805D1641CAC42F6D302203870E6
:1094C0000020BDE8F081000000C10F00F8C00F00CF
:1094D0002A010020002805D00068884205D048F203
:1094E0004050704748F210507047002070470028E5
:1094F00005D039B100220A6048600020704748F268
:109500001050704748F213507047002804D0914221
:1095100005D048F21150704748F2105070470020B3
:1095200070470144491E05E002780B7800F8013BC2
:1095300001F801298142F7D27047000070B5044656
:10954000002C07D0044E4FF47A45711C28468847FA
:10955000641EFAD170BD000080BF0F0010B50B4C27
:10956000216A012901D0002010BD60B1E06950B12D
:1095700000F00EF80022A169FEF7E8FEE1698142E1
:1095800001D0002010BD012010BD0000D40F00202C
:10959000AFF300804FF44050074A4168914207D131
:1095A0008068411EC1F30B01401A00F6FF7070473E
:1095B0004FF4805070470000DBE5B15100B5FFF774
:1095C000E9FF054989690A18401E0844C0F30B00E9
:1095D000101A00F6FF7000BDD40F002000210160BA
:1095E000416081600148016370470000D40F002092
:1095F0002DE9F0470646884691460024284FDFF8BB
:10960000A4A0012564B1012C16D0022C21D0002089
:10961000AAEB0000A0F54050B0421DD201201CE092
:10962000FFF7CCFFB9F1000F02D0396A012901D050
:109630000025EDE70125EBE7FFF7ACFF2BB94FF471
:109640004051194A4968914201D00125E0E70025BF
:10965000DEE700F0FDF8DBE7002040EA0801A9435F
:1096600005D0022C03D2641CE4B2022CC9D910B17B
:109670000420BDE8F087022C01D300F0C7F81CB12C
:1096800007481830FFF7AAFF0020386101207861F1
:1096900003482430FFF7A2FF7E620020E9E70000C4
:1096A000D40F002000400F00DBE5B15113460A46FD
:1096B0000146014800F036BE340100200249002274
:1096C000024800F04ABE000060BF0F0034010020D5
:1096D00008B5009313460A460146024800F041FED1
:1096E00008BD00003401002010B5054908600020C5
:1096F000FEF786FFBDE81040024800F0C7B8000042
:109700007400002001860F00002070471FB58A08F2
:1097100000210091039101900292684618DF04B085
:1097200010BD00001FB54FF48054084882690169DC
:10973000C0690091CDE902200194684618DF07282E
:1097400002D160040460002004B010BDF8BC0F001A
:1097500000207047014901F027B9000000F00F0018
:1097600010B5FFF7ABFF08B1032010BD01F032F9CF
:10977000044601F023F94FF4CE7134B10A460E4984
:109780000E48FAF7CFFD002010BD30B10C480A4654
:1097900001680A48FAF7C6FD05E00848FAF7EAFD4D
:1097A000064901204860002000F00CF808B10320B1
:1097B00010BD002010BD000000F00F00D40F0020ED
:1097C0007800002010B50446064801F0FDF8054970
:1097D00008602246BDE81040A1F54E73024801F032
:1097E000FFB80000D40F002000F00F0070B5054650
:1097F0000020FFF7E7FF04461CB90349284601F0A3
:10980000D3F8204670BD0000D40F002010B54FF4EF
:1098100040540C496068884213D1002304220A494D
:10982000201DFFF755FF00280BD10848016A0129C8
:1098300001D1002101628169A2681144A1F5805122
:10984000816110BDDBE5B15118BD0F00D40F0020C0
:109850004FF48050704700002DE9F0410746094859
:10986000094E801BC5080020002407E006EBC40059
:10987000416838468847002802D1641CAC42F5D3C1
:10988000BDE8F08108C10F0000C10F002DE9F041D3
:1098900007460948094E801BC5080020002407E040
:1098A00006EBC400016838468847002802D1641CD2
:1098B000AC42F5D3BDE8F08108C10F0000C10F0034
:1098C00010B50020FDF74EFC06484168491E416076
:1098D000406808B9FFF7F8F9BDE810400020FDF72F
:1098E00043BC00007012002070B50446134D687828
:1098F00000280ED014B16168002088470020FDF7D1
:1099000031FC6868401C6860BDE870400020FDF7CD
:109910002BBC0020FDF726FC24B108482146083066
:10992000FFF747FA686808B9FFF7CCF96868401C88
:109930006860BDE870400020FDF716BC7012002082
:1099400070B50A4C2078002801D085250CE0002055
:10995000A06060602061E060054800F059FE0546A7
:1099600000F014FE01212170284670BD7012002005
:1099700099820F0010B5002800D1044800F094FE31
:10998000002802D1024A0121117010BD0DBE0F0046
:10999000BC00002010B5044600F007F8204600F097
:1099A00005FF00F0FBFE002010BD10B500F0EEFE3C
:1099B000BDE8104000F006BF01480249086070474A
:1099C000041480010473024030B54C689C4204D2F8
:1099D000002545600968016007E043600D68056087
:1099E000E41A4C600868184408609A4202D10CB12D
:1099F000012030BD002030BD10B500F0C1FB13497F
:109A000008684860124800240460BFF36F8FBFF3FA
:109A10004F8F01F001FE0F490120087000F02CFA71
:109A2000002812D00020FDF79DFB0B4801680B4A6F
:109A300029B11460BDE810400020FDF795BB49F244
:109A40007531016014600160F4E710BD04730240D9
:109A500000750240C000002000EC064014ED0640F6
:109A60002DE9F0414FF40067384600F069FD00F041
:109A700003FA304D49F2753658B10020FDF772FBFC
:109A80002A6803212C48002A48D001600020FDF7F5
:109A90006BFB4FF001080020FDF764FB2968254CA3
:109AA000C0201434C9B320600020FDF75DFB2348BB
:109AB000C0F80080BFF36F8FBFF34F8F20490A6853
:109AC0001205FCD5384600F03BFD0020FDF74AFBAF
:109AD0002868002750B327600020FDF745FB19498F
