:020000040002F8
:1060000060DE0020DD630200E5630200E76302005A
:10601000E9630200EB630200ED6302000000000090
:10602000000000000000000000000000EF6302001C
:10603000F163020000000000F3630200F563020058
:10604000D9AF0200F7630200F9B10200F763020062
:10605000F7630200F76302007DAD0200F763020000
:10606000F7630200F7630200F7630200F7630200C0
:10607000F7630200F7630200F7630200F7630200B0
:10608000F7630200E9AF0200F7630200F763020062
:1060900001B00200F763020005B00200F7630200DE
:1060A000F7630200F7630200F7630200F763020080
:1060B000F7630200F7630200000000000000000028
:1060C000F7630200F7630200F7630200F763020060
:1060D000F7630200F7630200F763020005B20200F3
:1060E000F7630200F76302009D65020000000000F4
:1060F00000000000F763020000000000F7630200E8
:10610000000000000000000000000000000000008F
:10611000000000000000000000000000000000007F
:10612000000000000000000000000000000000006F
:10613000000000000000000000000000000000005F
:10614000000000000000000000000000000000004F
:10615000000000000000000000000000000000003F
:10616000000000000000000000000000000000002F
:10617000000000000000000000000000000000001F
:10618000000000000000000000000000000000000F
:1061900000000000000000000000000000000000FF
:1061A00000000000000000000000000000000000EF
:1061B00000000000000000000000000000000000DF
:1061C00000000000000000000000000000000000CF
:1061D00000000000000000000000000000000000BF
:1061E00000000000000000000000000000000000AF
:1061F000000000000000000000000000000000009F
:10620000DFF80CD000F08CF900480047691003005B
:1062100060DE002030B450E8012F93B2C4892344DB
:106220008489A34228BF1B1B0489A34202BFBFF37A
:106230002F8F002007E0C3EA020340E80134002C5E
:10624000E9D14FF001000A6030BC704750E8012FDF
:10625000C2EA024240E801210029F7D1704730B478
:1062600050E8022F1FFAA2F3C488A34202BFBFF373
:106270002F8F00200DE0C48923448489A34228BFC6
:106280001B1BC2EA034340E80234002CE8D14FF064
:1062900001000A6030BC704750E8022FC2EA224277
:1062A00040E802210029F7D17047034653E8022F46
:1062B000D988B2EB324F4FF0000017BF92B241EADB
:1062C000014142EA014104E05A68B2EB324F08BF93
:1062D000012043E80212002AE8D1704730B4044696
:1062E00054E8000F0D4644E80053002BF8D1156028
:1062F00030BC704730B4044654E8000F40EA010552
:1063000044E80053002BF7D1156030BC704730B41F
:10631000044654E8000F00EA010544E80053002B4E
:10632000F7D1156030BC704730B4044654E8000F14
:1063300080EA010544E80053002BF7D1156030BC1A
:10634000704730B4044654E8000F00EB010544E800
:106350000053002BF7D1156030BC704730B40446B1
:1063600054E8000FA0EB010544E80053002BF7D1DF
:10637000156030BC704770B404464FF0000054E81C
:10638000006F0D68AE4207BF44E80023012044E8D7
:1063900000630E60002B1CBF0020F0E770BC70474C
:1063A00030B4044654E8000F88422CBF451A054615
:1063B00044E80053002BF5D1156030BC7047000055
:1063C00000B583B002900091019244F20100714641
:1063D0006A4605F015FA03B000BD00000648804784
:1063E00006480047FEE7FEE7FEE7FEE7FEE7FEE7BA
:1063F000FEE7FEE7FEE7FEE719B0020001620200D9
:106400002DE9F05F0546002092469B4688460646E9
:10641000814640241BE0284641464746224600F07C
:106420006FF853465A46C01A914110D31146184688
:10643000224600F016F82D1A67EB01084F46224657
:106440000120002100F00DF817EB00094E41201E3D
:10645000A4F10104DFDC484631462A464346BDE844
:10646000F09F202A04DB203A00FA02F10020704756
:106470009140C2F1200320FA03F319439040704782
:1064800010B5441A0346944209D28418114403E01B
:1064900011F8013D04F8013D521EF9D210BD40EA49
:1064A0000104A40703D009E010C9121F10C3042A75
:1064B000FAD203E011F8014B03F8014B521EF9D256
:1064C00010BDD2B201E000F8012B491EFBD270478B
:1064D0000022F6E710B513460A4604461946FFF7B0
:1064E000F0FF204610BD30B504460020034600E012
:1064F0005B1C934203D2E05CCD5C401BF8D030BD06
:10650000202A04DB203A21FA02F00021704721FA08
:1065100002F3D040C2F1200291400843194670476F
:10652000064C074D06E0E06840F0010394E80700E0
:1065300098471034AC42F6D3FFF766FE68A203001A
:1065400088A2030070B58C1810F8015B15F00703E2
:1065500001D110F8013B2A1106D110F8012B03E0FC
:1065600010F8016B01F8016B5B1EF9D12B0705D404
:106570000023521E0DD401F8013BFAE710F8013B4D
:10658000CB1A921C03E013F8015B01F8015B521E69
:10659000F9D5A142D8D3002070BD00000B490C4BA7
:1065A0000C4A4FF0FF3008601B68BFF35B8F52E866
:1065B000001F42E800300028F9D1BFF35B8F9942F9
:1065C000F3D1BFF35F8F044A1360704704BA0250DF
:1065D00000BA02505CBE002008BA025099422DE970
:1065E000F04349D801EB030E4FEA5E0E0127002469
:1065F0000025002699423CD202EB830302EB810E78
:106600005EF804CB9E4544EA0C04F9D114F1FF3442
:1066100045F1FF356FEA050C0CF0010C8E46BEF11A
:10662000000F4DD0002400EB8E0E043A214652F8A4
:10663000043F50F8045B9D420CBF0123002301EA94
:10664000030103EA040388BF41F001012CBF1C468B
:1066500043F001048645EAD181B38CF001001EB3FA
:10666000BCF1000F24D123461F4000EB4700BDE8DA
:10667000F0834FF0000CD2E700EB830600EB810EB5
:106680000024002556F8047BB64544EA0704F9D1F6
:1066900014F1FF3845F1FF396FEA090606F00106EB
:1066A00009F001079E46A5E70840BCF1000FDAD0CB
:1066B00001231F4000EB4700BDE8F083002CCCD144
:1066C0002EB9BCF1000F09D030460123CCE78CF085
:1066D00001000024BCF1000FC5D0E9E76046644624
:1066E0006746C0E7F0B461B14C1E0519065DF6B906
:1066F000294634B111F8015D661EBDB93446002C3F
:10670000F8D1002B46D05C1E1519115D002943D12C
:106710002B4634B113F8016D651E86B92C46002C4A
:10672000F8D1081C18BF0120F0BC7047214673B394
:106730005C1E1519165D002EEAD0254600E02346A2
:106740008B4224D3994238BF0220EDD34C1EA54280
:1067500028BF2546002D22DB4419471E2A4400206D
:1067600004E0002808BF0120A7420BD014F80169FB
:1067700012F80159AE42F4D8F6D2002808BF022020
:10678000A742F3D1994218BF0020F0BC7047012006
:10679000F0BC70471846C7E725460021D2E7002025
:1067A000F0E700BF1AB110B11BB91148704711488A
:1067B000704713F0030FF8D18B42F6D30029F4D0C1
:1067C00090420AD004D91344984201D20A48704733
:1067D000904202D243189A42F8D91144013811F874
:1067E000013D00F8013F8A42F9D10020704700BF07
:1067F000050DF000040DF000060DF00032B128B1D7
:10680000F8B55C1E053403D91E48F8BD1E48704714
:1068100011F00304F8D18B42F6D8CE1C26F0030702
:10682000B94201D21948F8BDFF1A114605461A4669
:10683000384403F025FF39462846B70803F024FF03
:10684000012F04D12B681BBA2B602046F8BDF60837
:1068500005EB86042B4605EB870050F8041C1A68EC
:1068600009BA43F8041B12BA9C4240F8042DF4D133
:1068700017F00100D7D055F826301BBA45F826305E
:106880000020F8BD050DF000040DF000090DF0002A
:1068900091B310B44B1EC418C25C6AB9214633B11F
:1068A00011F8012D581E32B90346002BF8D11846B5
:1068B0005DF8044B7047194614064FEAC100F7D43F
:1068C000510600F1FF33F2D49406A0F10203EED496
:1068D000D106A0F10303EAD41407A0F10403E6D41F
:1068E0005107A0F10503E2D49207A0F10603DED41C
:1068F00007385DF8044B70470846704749B301F10B
:106900008042013A00EB820350F8222022BB1A4653
:106910004B1E1FD010B452F8044D34B91946013B38
:1069200013D052F8044D002CF8D001F18041023907
:106930005B0150F82120A3F1200102E0013B8B42D2
:1069400003D0002A4FEA4202F8DA18465DF8044BF9
:1069500070470B46184670474B01A3F1200102E037
:10696000013B8B42F6D0002A4FEA4202F8DAF1E707
:106970003AB10A44013812F8013D00F8013F8A4259
:10698000F9D10020704700BF2DE9F84339B12A4CF6
:106990000D68A54207D0294C2046BDE8F883284C55
:1069A0002046BDE8F88328B10568013CA54203D024
:1069B000244CF1E7244CEFE7A2B1BBB1089C9CB199
:1069C0000C460546164600F194014FF4377204F167
:1069D00050001F46043504F1040903F04DFE38B1A0
:1069E0001A4CD9E71A4CD7E71A4CD5E71A4CD3E71B
:1069F000D4F808833B6808F107084FEAD80898459F
:106A000003D9C7F80080154CC6E749462846089BBD
:106A1000324600F083FE044638B9C7F800804FF4D0
:106A20005371089803F030FEB6E73046396803F03A
:106A30002BFE00233B60F2E7020000EC3408F0007C
:106A40003308F0003208F0003108F0003A08F00096
:106A50003508F0003708F0003608F0003808F0007C
:106A60002DE9F04751B18BB160B1D0F8B842B4F51F
:106A7000107F0FD9294C2046BDE8F087284C2046CE
:106A8000BDE8F087274C2046BDE8F087264C20461D
:106A9000BDE8F087D0F8BC520134A542EAD80AB963
:106AA000224CE8E70735EE08B242F9D8174603F161
:106AB00004080A461D4681463B4640464C21FFF7E6
:106AC0009DFE044650B907F1030AB7424FEA9A0AFD
:106AD00015D051464046FFF711FF30B928464FF414
:106AE0004C7103F0D1FD124CC5E749464FF43772A3
:106AF00005F1500003F0C2FD0E4B2B60BBE7D9F847
:106B0000BC321F33C3F34F1309F1D802514640463C
:106B1000FFF764FD0228E1D1DBE700BF9508F00034
:106B20000908F0000208F0000A08F0000B08F00065
:106B30000C08F000020000EC38B191B110B5114B17
:106B400004689C4203D0104810BD1048704752B1F1
:106B5000D0F80C3314680733B4EBD30F05D20C48CC
:106B600010BD0C4870470C4810BD02460432084660
:106B70004C232146FFF716FE084B002814BF184689
:106B8000002010BD020000ECC208F000C008F000B8
:106B9000C408F000C108F000C308F000C508F00008
:106BA00048B17AB32DE9F843364C0568A54204D0C4
:106BB0003548BDE8F883354870472BB305291ED00A
:106BC00007291CD81E46D0F84C331546C26CDF1D71
:106BD000042903F11F0304464FEAD7074FEA531372
:106BE00002F0010213D0062911D0022907D1316821
:106BF00007F10108414529D22548BDE8F883254819
:106C0000BDE8F883244870472448BDE8F8834FEA7C
:106C10004708306808F101084045EDD304292846AB
:106C200018BF42F006014FEA830900F8011B4B46EA
:106C3000221D3946FFF7B6FDC0B12846316803F082
:106C400023FD002333601648BDE8F883284642F050
:106C5000020200F8012B9B00221D3946FFF7A2FD1E
:106C60000028EAD1C6F80080BDE8F883781C4B46BE
:106C700004F14C0228443946FFF794FD0028DCD18A
:106C8000F0E700BF010000EC1A08F0001408F00063
:106C90001808F0001508F0001608F0001708F000BA
:106CA0001B08F0002DE9F04182B0002A52D0002BE1
:106CB0005FD0089C002C52D0099C002C5ED000288C
:106CC00061D0002950D0154604460F4618464FF4AF
:106CD0004C711E4603F0D8FC4FF45D71089803F028
:106CE000D3FCD5F8BC3209981F334FEA53184FEA4A
:106CF000880208F1FF3805F1D80106EB880803F097
:106D0000BDFC0023C8F80430331DD5F8BC22009325
:106D100020463946099B00F029FA0446002834D061
:106D200030464FF44C7103F0AFFC4FF45D7108989E
:106D300003F0AAFC0A9B23B140F66811184603F041
:106D4000A3FC09984FF4537103F09EFC204602B057
:106D5000BDE8F081124C204602B0BDE8F081114C34
:106D6000204602B0BDE8F0810F4C204602B0BDE8DD
:106D7000F0810E4C204602B0BDE8F0810C4C20465C
:106D800002B0BDE8F0810B4CE5E72846099B089A64
:106D9000314600F037FD04460028C1D1CAE700BFE4
:106DA0000208F0000408F0009008F0000308F0006A
:106DB0000508F0009108F0000B2804D8034B53F8A5
:106DC000203003B118470020704700BFA4820300A1
:106DD0002DE9F84348B1044615460E4669B3302AFA
:106DE00007D9254F3846BDE8F883244F3846BDE81B
:106DF000F8839307F5D1DFF894804FF0FF31D8F88E
:106E0000000003F061FC074620BB04F184094846FA
:106E1000402103F039FC314648462A4603F02EFC57
:106E2000AD08C4F8C450D8F8000003F06FFC002887
:106E3000D8D0134803F0CCFBD4E70AB1114FD1E707
:106E4000DFF848804FF0FF31D8F8000003F03CFC39
:106E5000074658B10C4804F1840903F0B9FB4846D1
:106E6000402103F011FC002ED5D1D9E7402104F1D7
:106E7000840003F009FCD3E7040CF000250CF000BB
:106E8000F8800300030CF000E080030060DE0020C7
:106E90002DE9F04F9BB040B3002A43D021B98B4677
:106EA00058461BB0BDE8F08FA34E04460F4630682D
:106EB0004FF0FF31154603F007FCE0B99F4BD4F8C3
:106EC000DC209A421BD0DFF884B23946284603F012
:106ED000DBFBD4F8C4305BBB306803F017FC002840
:106EE000DED0974803F074FBDAE7DFF864B2584667
:106EF0001BB0BDE8F08F934803F06AFBDEE7D4F8DF
:106F0000D430DA071DD5D4F8CC3011331CD8D4F8DE
:106F1000D080B8F1040F1AD0B8F1080F17D0DFF8FD
:106F200034B2D2E7DFF830B258461BB0BDE8F08F7C
:106F30000023C4F8C43004F18400402103F0A4FB12
:106F4000CAE7DFF818B2C0E7DFF814B2BDE7D4F83B
:106F5000C4200C2A54D804F14003029304F1840A9B
:106F6000002A50D09200514604F1480003F086FBFD
:106F7000D4F8C420029908F104039B000093920006
:106F80005346204603F004FC834600289DD1034667
:106F900022465146204603F09BFD8346002894D1AB
:106FA0004FEA880B04EB0B09D9F80C301BBA5A1CBA
:106FB00011BA9342C9F80C1018D9D9F808301BBA85
:106FC0005A1C11BA9A42C9F808100FD2D9F80430E5
:106FD0001BBA5A1C11BA9A42C9F8041006D254F8C6
:106FE00028301BBA01331BBA44F82830002307A805
:106FF0001946032203F0C8F950B1DFF868B164E71D
:10700000DFF864B161E75046402103F03DFBC7E77C
:107010000146082305AA07A80594CDF818B003F087
:1070200009FA0028E9D1494607A803F0EBF900283E
:10703000E3D1454AD4F8D4301A4267D017F00F0B89
:107040004FEA171303930EBF4FF0100B0133039356
:10705000BB450DD0A7EB0B084146284603F014FBB7
:107060002B464246294607A803F0CAF80028C4D197
:1070700004F1300810224146029803F0FFFA40461E
:10708000102103F001FB1AAA102342F8583D07A86B
:107090000192CDF800801946424603F0F7F8002827
:1070A000ABD1A7EB0B0028445A46414603F0E6FA61
:1070B000D4F8D430DB0509D442460298039B294614
:1070C00001F0D0F8834600287FF4FFAE039A09F15F
:1070D000100353F8041C09BA0A4410BA914243F849
:1070E000040D4FF0010201D99945F2D15146012317
:1070F0002246204603F0ECFC834600287FF4E5AEF0
:10710000D4F8CC300133C4F8CC30E2E604F13008D6
:107110004046102103F0B8FA43464146102207A822
:1071200003F06EF800287FF468AFD4F8D43043F44D
:107130008033C4F8D43081E760DE0020CDAB23017A
:10714000F8800300E0800300000101000E0CF00055
:10715000270CF000210CF000000CF000080CF000EF
:10716000070CF000360CF000040CF00070B4039D26
:107170004DB1064E941EB44202D9054870BC70470A
:1071800070BC00F009B8034870BC7047FDFF0700F1
:10719000310CF000300CF000002800F08F80002946
:1071A00000F0B7802DE9F04F87B01D460193D31D45
:1071B0001446DA080E460292002D00F082808046C6
:1071C000BDF808102846FFF763FB02282C46054649
:1071D00069D9032864D0109BEC1DE40803EB040973
:1071E000029B4846191B6D4203F04EFA05F0070555
:1071F000109BCDF810904FF0FF0A4AFA05FA651E71
:107200001D44A3B20393A4F1100305934FF6FF733B
:107210005FFA8AFA9946109A03994046B0470028C7
:107220007AD12B780F2C0AEA03032B705FD9109ABE
:10723000059BD718019A02EB030B08E0002B56D0F0
:10724000B047002868D12B780AEA03032B7010237B
:1072500019465A463846FFF745FA0346022B3A4686
:107260004FF010014046E9D1DDF81090109901234C
:107270000A78134401F8013B89454FEA2323F7D1EB
:10728000019B02221C4419780A4403F8012B9C42FA
:107290004FEA2222F7D10023184607B0BDE8F08F4D
:1072A0002378032B97D81F4B10980299019303F072
:1072B000EBF9019B184607B0BDE8F08F1A4B184652
:1072C00070471546A9B2109AB04703460028EBD183
:1072D0006B1E109AD25C42F0800162071ED062429F
:1072E00002F0070241FA02F21099CA54D3E7A3B29E
:1072F0001946019A1098FFF7F5F9022804D0B9F160
:10730000010988D1094BCFE7DDF81090002CADD1F1
:10731000C1E7074B184670470346C5E7109AD1549A
:10732000B9E700BF320CF000250CF000010CF000B2
:10733000140CF00070B5D9B1B8B1174E0D46044623
:107340004FF0FF31306803F0BFF9A0B9134BD4F808
:10735000DC209A4213D0124C306803F0D7F910B1F8
:10736000104803F035F9204670BD0F4C204670BD23
:107370000E4C204670BD0E4803F02AF9E6E7D4F81B
:10738000D430DB0701D40B4CE6E720462A46002127
:1073900003F0FEFA0446DFE764DE0020CDAB2301F4
:1073A0000E0CF000F8800300250CF000200CF0001B
:1073B000E0800300080CF000F0B589B090B169B12D
:1073C00005460C46E42103F05FF901A9284602F0C6
:1073D000DDFE58B1234C204609B0F0BD224C2046BA
:1073E00009B0F0BD214C204609B0F0BD204E4FF051
:1073F000FF31306803F068F980BB01A922462846B6
:1074000000F05EFF0746306803F080F9D0B9002F26
:10741000E0D1E421284603F037F94FF0FF3130681E
:1074200003F052F9B0B922462846012103F0B0FA20
:107430000446306803F06AF940B90E4B002C18BFBF
:107440001C46C8E70C4803F0C3F8E0E70A4803F01D
:10745000BFF8F2E7094803F0BBF8E4E7074803F098
:10746000B7F8CAE7110CF000200CF000250CF00072
:1074700064DE0020120CF000F8800300E0800300BE
:107480002DE9F04F99B09C01239F229EDFF87CE20A
:107490004FEA073C4CEA874744F00458944648EAD0
:1074A0000705DEF800200292029AD207F9D5964A23
:1074B000DFF858E215604FEA8C1C249A4CF0104C0F
:1074C0004CEA02354FEA834945EA090CDEF8002010
:1074D0000392039AD507F9D58B4A8C4DC2F800C0A8
:1074E0004FEA811848F0104217432A680492049A20
:1074F000D207FAD5320342EA8646834A834D1760A3
:1075000046F0045727432A680592059AD207FAD510
:1075100044EA090A7C4A7D4D17604AF0045A4FEA52
:10752000033E4AEA0E0A2A680692069AD707FAD557
:107530008A04019242F0104C734A744FC2F800A0C2
:107540004CEA040C4CEA0E0C3A680792079AD207F0
:10755000FAD56D4A6D4FC2F800C046F0104C4CF49D
:10756000807C3A680892089AD507FAD5664A674F30
:10757000C2F800C0860146F0045C4CF4821C3A68F4
:107580000992099AD207FAD55F4ADFF88CB15F4FAA
:10759000C2F800C04FEA003A4AEA0B0B3A680A9276
:1075A0000A9AD507FAD5584F594AC7F800B0259D11
:1075B000303742EA854C3A680B920B9AD207FAD5DB
:1075C00044EA0E07DFF840B1504ACBF800C047F05C
:1075D000245747F4001715680C950C9DED07FAD554
:1075E00046F0484CDFF820B1484ACBF800704CF424
:1075F000821C4CEA030315680D950D9DED07FAD525
:1076000046EA0A06404F414A3B6046F0045646EAC5
:10761000090613680E930E9BDF07FAD544EA8040F3
:10762000394B3A4A1E6040F0045040EA0E0013689D
:107630000F930F9BDD07FAD5334B364F334A186053
:107640004EEA070713681093109BD807FAD5019DDF
:107650002D4B2E4E1F600A03154348EA050747F0DD
:10766000045033681193119BDB07FAD5264B274E44
:10767000186047F0104733681293129BDB07FAD566
:10768000214B224E1F6033681393139BDB07FAD5FF
:107690001D4B1E4E186045F0045525433368149366
:1076A000149BDF07FAD5259B184844EA0334164B90
:1076B00044F010441D6044EA090403681593159BC7
:1076C000DD07FAD548EA02020F4B10481C6042F071
:1076D000245242F4101203681693169BDC07FAD565
:1076E00041F04841084B09481A6041F4A21141EAAF
:1076F000080103681793179BDB07FAD5024B196043
:1077000019B0BDE8F08F00BF80B00250B0B0025099
:107710000041002140012829000110212DE9F043FA
:10772000D0F848431F3464091D464FEA8408D0F856
:107730004C3385B005EB080600F1480706EB080E50
:107740001F3300970195914602965A09CDF80CE037
:107750000346903001F022FB074640B128464FF423
:10776000537102F091FF384605B0BDE8F083304612
:107770002146FFF7C3F808B9064FEFE72146284630
:10778000FFF7BCF80028F7D0424648462946FFF7E5
:10779000EFF8E3E72008F100F0B5D0F84843D0F85F
:1077A0004C2385B01F340346640901EBC40001EB90
:1077B00084070D4601911F3203F1480103900091A7
:1077C0000297520903F5B47103F1900001F0E6FA53
:1077D00018B10A4E304605B0F0BD0646214638467F
:1077E000FFF78CF818B1064E304605B0F0BD2146C3
:1077F0002846FFF783F80028F5D1EBE73008F000C2
:107800001008F0002DE9F04385B088B300294CD072
:107810009AB3002B4ED01646D0F8BC22039306F143
:107820004C0400F5B6731F3201F1040906F1040897
:10783000029400930D4652094946CDF8048000F5A4
:107840009273074601F0AAFA0446D8B100242C60CE
:107850004846214634604C2202F014FF214640463F
:10786000902202F00FFF164C204605B0BDE8F083D1
:10787000144C204605B0BDE8F083134C204605B0FB
:10788000BDE8F0834FF43772394605F1500002F03D
:10789000F5FE0E4B2B6039464FF4377206F194001B
:1078A00002F0ECFE0A4B3360E3E70A4C204605B0D9
:1078B000BDE8F083084C204605B0BDE8F08300BF6A
:1078C0003008F0000208F0000408F000020000ECAC
:1078D000010000EC0308F0000508F000F0B5D0F856
:1078E000483303F11F048DB064092022122C00924A
:1078F00003D9564E30460DB0F0BD0F4605466946D9
:10790000184601F07DFB06460028F3D1234605F119
:107910009002012101F0CEF801210846052305F56A
:10792000127201F0C7F823462A460121022001F015
:10793000C1F8234605F1D8020121042001F0BAF86C
:1079400005F5907223460121052001F0B3F8404A65
:1079500013680193019BDB07FAD53E4B3E493C4A35
:10796000196013680293029BD807FAD5394B3B493B
:10797000374A196013680393039BD907FAD5354B2F
:107980003749334A196013680493049BDB07FAD51F
:10799000304B344A1A6007F00603022B29D005F158
:1079A000480223460121032001F084F8284A136885
:1079B0000593059BDC07FAD5264B2B49244A196011
:1079C00013680693069BD807FAD5224B2749284A05
:1079D000196013680793079BD907FAD5254A264BE8
:1079E000126812F4805F08BF1E46009801F066FA24
:1079F00080E702F00FF8002826D01D4A136808938C
:107A0000089BDB07FAD51D4B194A196813680A93BE
:107A10000A9BD807FAD51A4A1A4B11601B680993BA
:107A2000099B5F40F90708D5343A13680B930B9B09
:107A3000DB07FAD5074B144A1A60214605F14800C6
:107A4000032201F00BF8D0E7104ECEE70F08F0004C
:107A5000B0B0025080B002508021088880411831B7
:107A6000806108880051183180310C8800681051FD
:107A7000B4B0025088B002501008F0000CB00250B0
:107A8000E4B00250DCB00250C03000294021F000C8
:107A900070B582B058B10E46016A072904463FD03E
:107AA00053B9032912D00025284602B070BD4FF407
:107AB0007105284602B070BD416B00295DD1B3F558
:107AC000805F0DD3914D284602B070BD016B002937
:107AD000E9D1C36303644364836400F13C0610236B
:107AE0004FF0FF318A488DE80C0002F0EDFD9DE873
:107AF0000C00002847D1874801210160206A07282F
:107B000047D9854B1D68002DFCD1824B80481D60F4
:107B100002F0FCFD0028C6D0804802F059FDC3E702
:107B2000426B22BBB3F5805FCCD213B9226B002A23
:107B3000C8D14FF0FF317648009302F0C5FD009B9D
:107B4000002840F08C80734901220A60216A0729CD
:107B500040F28F80724D704A1368002BFCD16D4A41
:107B60006B48136002F0D2FD00289DD0D4E7012AB3
:107B7000DBD1B3F5803FA5D2D7E70129B0D1B3F56A
:107B8000803F9FD2ACE7674802F022FD9DE80C00E1
:107B9000B1E7814011F08F0FB3D0616A0129B0D8ED
:107BA000616B0129ADD8A16B0129AAD820468DE8C7
:107BB0000C0003F093F80028A3D1A16A01299DE8E5
:107BC0000C006CD065D3022963D0216A481E0628B8
:107BD0000FD8DFE800F00431040E0E0E0400524905
:107BE0002068086060684860A0688860E068C860D5
:107BF000216A21F00401032936D0A16B012958D054
:107C00004A484B49026020200B60626B012A3BD03E
:107C10004849494A0E60136002F072FC3E4A1368FC
:107C2000002BFCD1236A013B062B12D8DFE803F0BE
:107C300014061411111114004049D1E73F4A404B7A
:107C4000126822601A6862605A68A26008331B6872
:107C5000E3600123236354E7334A3A4BF0E73148AA
:107C600002F0B6FC009B6EE7626B012A0BD010207D
:107C7000CEE78A4012F08F0F3FF46CAF626A012AA0
:107C80001DD9314D67E740203049314A0E601360FD
:107C9000C2E7304D304829600121016095E72F4946
:107CA0002069086060694860A0698860E069C86010
:107CB0008BE72B482B49026080200B60A5E7626BA5
:107CC000012A01D9284D46E7A26B012A01D9274D87
:107CD00041E72046009303F001F8054600287FF4B1
:107CE0003AAFA26A009B012A00F09280C0F08A801D
:107CF000022A00F08780226A013A062A41D8DFE88A
:107D000002F0376537404040370000BF0500F10002
:107D100070DE002010B8025010B9025070810300CC
:107D20000100F1005881030040B4025030BD025000
:107D300034BD025030BC025034BC025060B402501A
:107D400064B4025044B402500200F10028BC025056
:107D50002CBC025038BA025078B4025000B4025021
:107D600028BD02502CBD02500300F1000400F100B8
:107D70002F4A2168116061685160A1689160E168D3
:107D8000D1602C482C49012202600B60002B2ED1BF
:107D9000236B0BB9294B1A60294A1368002BFCD1BD
:107DA000236A013B062B3FF6D6AE01A252F823F020
:107DB000D17D0200E97D0200D17D0200577B0200E7
:107DC000577B0200577B0200D17D02001D4AD0E79D
:107DD000174A1D4B126822601A6862605A68A260D6
:107DE00008331B68E360B6E6164A184BF2E7626B8D
:107DF000012A17D01649174A0E601020136002F0AE
:107E00007FFBC9E714481549026001220A6072E746
:107E1000134A2169116061695160A1699160E1694A
:107E2000D16068E70F49104A0E6040201360E6E712
:107E300040B402507CB40250BCB4025024B502508D
:107E400010B9025060B4025044B4025064B40250FD
:107E500030BC025034BC025038BA025078B40250E0
:107E600000B4025028BC02502CBC02500B6802E047
:107E7000082B0B6006D8426813424FEA4303F7D041
:107E80000020704700487047310CF1000138072886
:107E900015D8DFE800F0100C1408141414048B69D2
:107EA0008B60002070474B698B60002070470B6926
:107EB0008B6000207047CB688B60002070470148C2
:107EC000704700BF310CF1002DE9F04F8FB08046B4
:107ED0000C46164602A830220021189DFEF7FAFA39
:107EE0001A9B03F5C1622A60199A00231360D8F81F
:107EF000D43013F4407F0AD02B681B681360002B2A
:107F000040F08980924F38460FB0BDE8F08F002EC8
:107F100000F08E808F49904A0868A16812689142EB
:107F200040F09B80002840F0988098F8DB30009368
:107F30008A4E8B4DDFF834A2DFF834B24FF00409DB
:107F40000023019301270CE09A0700F19380DB06E0
:107F500000F18D80A36803EB43031B049B0933608E
:107F60002F6001A800F0CAF9019BD907ECD54FF0AA
:107F7000FF33CAF80030DBF800300293794B1A68FF
:107F800003925A6804920833774A1B680593A368E2
:107F90001168069103EB430351680791203A1B04D3
:107FA0009B0912683360012700232F6001930AE0C8
:107FB00099075FD4DA065AD4A36803EB43031B0482
:107FC0009B0933602F6001A800F098F9019BD80746
:107FD000EED56649664A634B4FF0FF300860126881
:107FE00008921A6809925A680A929A680B92DA689B
:107FF0000C921A690D92143B1B681A9B302203F5F0
:10800000C26002A902F03AFB199A30231360D8F833
:10801000D430002722E0D8F8D47017F4007720D0AD
:108020002B68544F5A684A4B002A08BF1F466AE71C
:1080300023F00F03C8F8D430002C00F087800EA97D
:10804000012341F8383DC8F8D8602046FFF70EFFFD
:10805000074648B3D8F8D43000E0474F9B053FF5BA
:1080600052AF00F02FF938460FB0BDE8F08F102363
:10807000CAF800304FF0FF33CAF80030009B082BDD
:108080000ED05B0000933CB1002B55D163683BB927
:10809000D8F8D430394FE1E7D8F8D430384FDDE79D
:1080A000D8F8D430374FD9E721460098FFF7EEFED5
:1080B00007460028CED1009B082B00F0C480042B7B
:1080C00000F0BF80A3F10203B3FA83F35B092E4AE9
:1080D0002E4E214D01211160084631600F46176078
:1080E000A16829602E68A1688E42F8D11C4ADFF889
:1080F0007CE0274F274E174D00214FF0FF3C1160C9
:10810000CEF800C06FF0130EC7F800E033602960AE
:10811000A368124903EB43031B049B090B60106027
:108120000099D8F8D8200B0243EA016322F07F427D
:108130001343C8F8D830FBE669462046FFF796FEA1
:1081400050B30E4B98420746A0D083E70C4F85E70B
:10815000330CF00038B1025030B10250D8B10250A7
:108160002CB1025018B1025024B1025008B1025093
:1081700014B10250340CF000300CF100310CF1005D
:10818000350CF100320CF100C4B1025040B1025084
:1081900000B102500CB1025021460098FFF776FE64
:1081A0000028CED1009B082B45D0042B46D0A3F14C
:1081B000020CBCFA8CFC4FEA5C1C2448244F254A74
:1081C0000123036019463B6086461F46CEF80070C7
:1081D000A36813601368A0688342F7D100231E4A86
:1081E0001E4F1F482B604FF0FF3ECAF800E06FF0B3
:1081F000130EC7F800E0C0F800C01360A36803EBDB
:1082000043031B049B0933602960009AD8F8D810F7
:10821000130243EA026321F07F421A43130A03F474
:108220007F03134323F07F43B9F10109C8F8D83025
:108230007FF486AEE1E64FF0030CBEE74FF0020C90
:10824000BBE7022343E7032341E700BFC4B1025069
:1082500040B1025030B1025038B1025000B102506A
:108260000CB10250012BF8B5164607D010221D465E
:108270000C4602F001FA48B91048F8BD1146102228
:1082800002F0FAF90028F7D00020F8BDAF1E314601
:1082900004EB0710102202F0EFF90028ECD0022DB9
:1082A000F2DD00252046103421461022013502F06F
:1082B000E3F90028E0D0BD42F4D1E5E7020CF0007C
:1082C00000207047084B094A002119601368002BF1
:1082D000FCD107480749084A03604FF480604FF01B
:1082E000FF330860136070472CB1025010B9025080
:1082F000C4B1025008BA025008B1025038B5044661
:108300004FF4806002F0FCF8054D06480649074A24
:1083100000232B6003600B682360136038BD00BF2F
:10832000C8B102502CB1025004B1025008B1025041
:108330002DE9F04F99B0964C269F239E4FEA874E29
:108340004FEA073C4EEA0C0747F0104747F080071A
:1083500025680195019DED07FAD54FEA801A4AF08C
:1083600010498C4C8A4D276049F4005949EA8343EF
:108370002C680294029CE407FAD5864C844D236055
:108380004AEA003747F0245444F400142B6803935E
:10839000039BDB07FAD57F4BDFF8F4811C604EF0BE
:1083A000104545F40255D8F800300493049BDB07D0
:1083B000F9D5784C764B25604FEA811949F0104881
:1083C000229C48F4005848EA84451C680594059CA2
:1083D000E407FAD549EA013E6E4B6D4C1D604EF044
:1083E000245848F4001823680693069BDB07FAD547
:1083F0004FEA864B4BEA0636664B654CC3F8008065
:1084000046F0104646F0800623680793079BDD0779
:10841000FAD5614B249D5F4C43EA85455C4B266051
:1084200005431C680894089CE407FAD5594B584C3E
:108430001D604BF0104545F4025523680993099BD4
:10844000DB07FAD5259C554E524B46EA8446504CE4
:108450001D6046EA010523680A930A9BDE07FAD5E8
:10846000940144F010464B4B46EA0B0B484E1D60FE
:108470004BEA0C0533680B930B9BDB07FAD544EAF8
:108480008242444B424C1D6042F0104242F4405242
:1084900023680C930C9BDD07FAD53E4B3C4C1A60CD
:1084A00023680D930D9BDA07FAD53A4B3C4C384ABA
:1084B0001C6013680E930E9BDB07FAD5354B394CC5
:1084C000334A1C6013680F930F9BDE07FAD5314BBC
:1084D000354C1C602E4A4EF0104444F4402413687E
:1084E0001093109BDD07FAD580042A4B284A1C60A4
:1084F00040F0104545F4824513681193119BDC0749
:10850000FAD5244B294C224A1D604AEA0404136818
:108510001293129BDB07FAD51E4B1D4A1C6047F0D5
:10852000045747F4801713681393139BDE07FAD59B
:10853000184B174A1F6013681493149BDD07FAD574
:10854000144B134A1F6040F0045040F482401368FB
:108550001593159BDC07FAD541F048410D4B0C4AA9
:10856000186041F4042141EA090113681693169B2F
:10857000D807FAD5074B064A196013681793179B5B
:10858000DB07FAD5034BC3F8008019B0BDE8F08FC4
:10859000B0B0025080B00250C02000C8802000C897
:1085A00000310C90C0400C90C0302029032008C836
:1085B0002DE9F04FA1B09E012F9FDDF8B0A0AE4C89
:1085C00000924FEA87493F0346F0104549EA070EFB
:1085D00005954EEA05084D4622680692069AD2078E
:1085E000FAD5DFF898C2DFF890E282010192CCF868
:1085F000008042F010442A9A44EA82441A0344EA72
:108600000208DEF800400794079CE407F9D5019CB6
:10861000DFF868E2DFF860C244EA00340294CEF882
:10862000008044F0245E4EF4001EDCF80040089404
:10863000089CE407F9D546EA0204A946DFF83CC2E3
:108640000494254649EA05058B4CCCF800E045F03A
:10865000104925680995099DED07FAD52B9CDFF88F
:108660001CE24FEA811848F0104C4CEA844C824CD2
:10867000CEF800904CEA020C25680A950A9DED0799
:10868000FAD57E4C7C4DC4F800C048EA013E4EF05D
:10869000245C4CF4001C2C680B940B9CE407FAD56A
:1086A0004FEA8A4949EA0A35744CDFF8CCA1C4F88C
:1086B00000C045F010453543DAF800400C940C9C9E
:1086C000E407F9D52D9CDFF8B8A1DFF8B0B14AEA8C
:1086D000844A4AEA000ACBF80050674C4AEA02058D
:1086E000039525680D950D9DED07FAD549F0104AC3
:1086F000DFF888B1039D604CCBF800504AEA060AC7
:108700004AEA020A25680E950E9DED07FAD52E9CC1
:10871000DFF868B141EA844545F0484535431543E3
:10872000554CCBF800A0039525680F950F9DED07DC
:10873000FAD5009CDFF844B1039DCBF800504FEA16
:10874000841A4AF0104444EA09094B4C49EA0707E5
:1087500025681095109DED07FAD5009CDFF81C9157
:10876000A5044AEA050A4AF0104A434CC9F80070C9
:108770004AF4405A27681197119FFF07FAD53F4FD7
:108780003D4CC7F800A027681297129FFF07FAD543
:108790003A4FDFF8F090384CC7F8009027681397ED
:1087A000139FFF07FAD5354FDFF8DC90324CC7F83E
:1087B000009027681497149FFF07FAD52F4FDFF812
:1087C000CC902D4CC7F800904EF0104E4EF4402E39
:1087D00027681597159FFF07FAD5284C264FC4F830
:1087E00000E0800440F0104E4EF4824E3C68169437
:1087F000169CE407FAD5019CDFF8809044F04847C6
:108800009B04C9F800E047F0030742EA030E1A4C44
:1088100047EA0E0722681792179AD207FAD5174C23
:10882000154A2760029C44F0045747F480171468E7
:108830001894189CE407FAD5104A0F4C1760226868
:108840001992199AD207FAD50C4A0B4C176040F0CE
:10885000045040F4824022681A921A9AD707FAD537
:1088600041F0484141F48041044A034C106041EA20
:1088700008010B430CE000BFB0B0025080B00250C2
:10888000C00000C800310C90C0400C90C0302029BE
:1088900022681B921B9AD207FAD51A491A4A0B6012
:1088A00013681C931C9BDF07FAD5009B164945EA09
:1088B0000335144B45F01045C3F800C02E430B6838
:1088C0001D931D9BDC07FAD50E4B0F491E60059BBF
:1088D0004EEA03020B681E931E9BD807FAD5094B7C
:1088E00009491A60049B43F0104242F430120B68AD
:1088F0001F931F9BDB07FAD5024B1A6021B0BDE81E
:10890000F08F00BF80B00250B0B002502DE9F041AE
:108910004C4C88B023680193019BDD07FAD54A4B84
:1089200013449B000A181D681E2A05F11F0588BF05
:108930001E224FEA551505FB02F288BFC0F11E0149
:10894000B2F5806F04D94FF48061B1FBF5F1091ADB
:10895000002971DD00F1A05000F52C406E1C4FF095
:10896000000E384ADFF8ECC0384C870026F00106CC
:10897000704613680293029BDB07FAD5D7F8008094
:1089800013680393039BDB07FAD5CCF80080002320
:108990004DB101339D422060FBD1B54203D201337A
:1089A000B3422060FBD10EF1010E714507F10407BF
:1089B000DFD1244A13680493049BDC07FAD5244BC7
:1089C000204A196813680593059BD807FAD5214BEF
:1089D000196075B100231D491A4601339D420A6092
:1089E000FBD1AE4205D91949002201339E420A60EB
:1089F000FBD1144A13680693069BD907FAD5164B88
:108A0000104A196813680793079BDB07FAD5114BC7
:108A10001960ADB100230D491A4601339D420A6029
:108A2000FBD19E4205D90949002201339E420A60CA
:108A3000FBD108B0BDE8F0816E1C26F00106B8E756
:108A40002B46EEE7B4B0025024AC0014D8B002506C
:108A50007CB00250D4B0025078B0025010B4124C26
:108A600085B023680193019BDB07FAD502F1A05280
:108A700002F52C4293000C4A1C6813680393039B75
:108A8000DB07FAD5094B1C6049B1094A00EB8101AB
:108A900013680293029B40F8043B8842F8D105B06A
:108AA0005DF8044B704700BFB4B00250E4B0025010
:108AB000DCB0025070B42E4D85B02C680094009C40
:108AC000E407FAD500F1A05000F52C408000284DB5
:108AD0000468286801900198C007FAD52548012646
:108AE000046093B1244E02EB830552F8040B30600E
:108AF000AA42FAD15E1C26F00102934205D21E4D15
:108B00000020013393422860FBD1194826F001056B
:108B100002680292029AD607FAD5184B0B449B00C2
:108B20001B681F335B099D421ED211490A680392DC
:108B3000039AD207FAD50F4A2C445B1B146013D05A
:108B4000002214460C4800E00A46511C9942046079
:108B5000FAD1023222F00102934205D206480021E6
:108B6000013393420160FBD105B070BC704700BF78
:108B7000B4B00250D4B00250D8B0025024AC0014AB
:108B8000F0B595B07B4D1A9E370347EA864747F00C
:108B9000045444F080042E680096009EF607FAD52F
:108BA000754D764E2C601B9C46EA8212714E42EA4D
:108BB000043432680192019AD207FAD56E4D6D4E97
:108BC0002C608A0142F01044274334680294029CCE
:108BD000E507FAD51C0344EA8343674C654E2760DA
:108BE00043F0045747F0800734680394039CE4077C
:108BF000FAD5614C5F4E276034680494049CE70703
:108C0000FAD55D4E5E4D35608C0444F01045594FE9
:108C100045F402553E680596059EF607FAD5564F6F
:108C2000544E3D6043F0104545F48075336806931B
:108C3000069BDF07FAD5504B4E4F1D60860146F06C
:108C4000045545F482153B680793079BDB07FAD56B
:108C5000494BDFF83CC1DFF81CE11D60070347EA20
:108C60000C0CDEF800300893089BDD07F9D5424D67
:108C7000DFF820E1C5F800C01C9B30354EEA834C7C
:108C80002B680993099BDB07FAD53B4B394DC3F899
:108C900000C02B680A930A9BDB07FAD5364B394D87
:108CA000DFF8F4E01D60334D46EA0E0E2B680B939F
:108CB0000B9BDB07FAD53E432F4B2E4DC3F800E04C
:108CC00046F0045646F400262B680C930C9BDF07F5
:108CD000FAD5294F2C4B274D3E6043EA80402B6844
:108CE0000D930D9BDE07FAD5234B224D18602B68A0
:108CF0000E930E9BDB07FAD514430E031E4B234D38
:108D00001C481D60344344F0045503680F930F9BC7
:108D1000DF07FAD5184B17481D6044F0104403686C
:108D20001093109BDB07FAD5134B12481C600368A5
:108D30001193119BDF07FAD516430F4B0D481D60A9
:108D400046F0245646F4101603681293129BDC0773
:108D5000FAD541F04841084B06481E6041F4A21183
:108D6000114303681393139BDB07FAD5024B196079
:108D700015B0F0BDB0B0025080B0025000000890B5
:108D800080200821802020298020002140212829BE
:108D90000001102100410021024010C82DE9F04FD0
:108DA00004460D4687B01146284690469946FDF781
:108DB000A5FDD4F8BC3204F1D8071F33064641465E
:108DC0005B093A462846FDF709FC2EB9DFF8E88032
:108DD000404607B0BDE8F08F0128F7D006A9202350
:108DE00041F8043D324BD4F8B8B2D4F8BC0293F940
:108DF0001A200092584593F91B20019238BF58461B
:108E000093F91C2093F91D300292039300F0F8F8B7
:108E100080460028DCD10BF11F0A26494FEA5A1A76
:108E20005346C1F800B022460121FFF743FE01215D
:108E3000084604F5DC720523FFF73CFE534604F1B7
:108E4000480201210B20FFF735FED4F8BC329DF813
:108E500008409DF800001F333A465B099DF80C70EE
:108E60000121FFF727FE4A46534620460121FFF71E
:108E700021FE53463846109A0121FFF71BFE06F1EA
:108E80001F035B092A469DF804000121FFF712FE2B
:108E900000F0CEF9224651461198FFF7DFFD1298F7
:108EA0003A465146FFF7DAFD059800F007F88FE7DC
:108EB000D482030090B002503008F10008B560B9C8
:108EC0000B4B0C4800221A6001F020FC00B908BDD1
:108ED0000948BDE8084001F07BBB202801464FF05F
:108EE000070228BF20210020FFF710FDE8E700BFA0
:108EF0001CB8025068DE00202881030070B41C6892
:108F000085B001F01F0644B91E2E06D01068F0404F
:108F100000F0030005B070BC70470F4D2C68019441
:108F2000019CE407FAD500F1A05000F52C40800028
:108F3000094D00682C680394039CE407FAD5074D9B
:108F4000074C00EB611129602168029102991160C0
:108F500000211960DAE700BFB4B00250E4B002505B
:108F6000DCB0025030B4224A84B013680093009BF6
:108F7000DC07FAD500F1A05303F52C439B001C4AF3
:108F8000186813680193019BD907FAD5194B1B6820
:108F900013F11F0148BF03F13E014911013910D4FB
:108FA000134A154D154C13680393039BDB07FAD541
:108FB0000B182B6023680293029B3BB911F1FF3120
:108FC000F1D2481C400104B030BC70470131480167
:108FD000A0F120014FF0004202E001388142F2D0BE
:108FE00013424FEA5202F8D004B030BC704700BFC1
:108FF000B4B00250ACB00250E4B00250DCB0025049
:1090000038B504460D4611484FF0FF3101F05CFBC6
:1090100050B9A4F12003B3F5426F0DD90C4C0B48A5
:1090200001F074FB204638BD0A4801F0D1FAA4F1E2
:109030002003B3F5426FF1D820462A46002100F004
:109040000BF804460028EAD1204638BD68DE00202F
:109050002221F00040810300F0B58F2883B060D852
:1090600000F1470400F16603E4064FEA53135CD1B4
:109070005B013F339B095F1C29B18F4202D92C4809
:1090800003B0F0BD0F46FB004FF48054B4FBF3F483
:10909000202C28BF202402B11460264B264A01252B
:1090A00000211D60023C0B4607FA05F540F6FC76F0
:1090B000A34203F101032FDA1E2B42F8041B2944BB
:1090C000F6D11E4ADFF894C0116000F13F03294435
:1090D0001B4EDFF88CE0CCF8001023F03F03403348
:1090E00018493160BC01CEF80000174FD361174D0D
:1090F00017481849184B3C603C32B4612C6004603E
:109100000C601C6013680193019BDB07FAD5124BBE
:1091100000201C6003B0F0BD1E2B42F8046BC7D1C9
:10912000CFE700F11F035B09A2E70133A0E700BF0F
:109130002221F0001CB8025000B0025078B002505A
:1091400084B0025020F80F0098B00250A0B0025036
:10915000A4B00250A8B00250ACB002507CB0025093
:1091600090B0025070B42D4C89B0206800900098E7
:10917000C007FAD52A4D2B482B4E284C2E6040EACA
:109180008343206801900198C607FAD59001244CCA
:1091900040EA82422360214842F0104444F4C04433
:1091A00003680293029BDD07FAD51D4B1B481C6028
:1091B00003680393039BDB07FAD58B0143EA8141E4
:1091C000174B1A4D1D60154841F0104545F4C04538
:1091D00003680493049BDE07FAD5114B0F481D600A
:1091E00003680593059BDD07FAD50D4B0B481C6002
:1091F00041F0584403680693069BD907FAD5084BFB
:1092000006491C6042F058420B680793079BDB0736
:10921000FAD5034B1A6009B070BC7047B0B0025069
:1092200080B0025080710098C0210229806118909E
:109230002DE9F04F254AC3B013680B930B9BDB0756
:10924000FAD5234B2349214A196013680C930C9BD0
:10925000DF07FAD51E4B20491C4A196013680D938D
:109260000D9BDE07FAD51A4B1C49184A1960136882
:109270000E930E9BDD07FAD5154B1949134A196059
:1092800013680F930F9BDC07FAD5114B15490F4A52
:10929000196013681093109BD807FAD50C4B124A2B
:1092A0001A601B20FFF75EFE06461820FFF75AFEE5
:1092B0008642064A1CD913681193119BD907FAD527
:1092C000034B0A4A1A60012307931CE0B0B0025016
:1092D00080B0025000020021008220214082202123
:1092E0008082242140066E4900966929C00666499D
:1092F00013681293129BDB07FAD5904B904A1A60C1
:109300000023064607938F4A13681393139BDF07C6
:10931000FAD58A4B8C498B4A196013681493149BB5
:10932000DD07FAD5854B894A1A601C201D211822B9
:109330000B238DE80F000F230E220D210C20FEF7CA
:109340009FF80C200D210E220F238DE80F000DF544
:10935000847B1323122211211020FEF791F801368D
:1093600001234BF8E03D26F00106023E31465B4604
:1093700009AA1B20FFF7C2FD022800F0ED81032897
:1093800000F0C381012800F00E824FF0000A6D4A00
:1093900013682193219BDC07FAD5684B6C49694A15
:1093A000196013682293229BD807FAD5634B694949
:1093B000644A196013682393239BD907FAD55F4D3C
:1093C000654B2B60023E00F103815E4CDFF8D091CB
:1093D000DFF8D081614F23682C932C9BDB07FAD5F3
:1093E000C5F8009023682D932D9BD807FAD55C4BC8
:1093F0002B6023682E932E9BD907FAD5C5F80080E1
:1094000023682F932F9BDA07FAD5564B2B602368DE
:109410003093309BDB07FAD5534B2B602368319395
:10942000319BD807FAD5514B2B6023683293329B7E
:10943000D907FAD54E4B2B6023683393339BDA0759
:10944000FAD54C4B2B6023683493349BDB07FAD559
:10945000494B2B6023683593359BD807FAD5474B8A
:109460002B6023683693369BD907FAD5444B2B6083
:1094700023683793379BDA07FAD5424B2B60236872
:109480003893389BDB07FAD53F4B2B602368399321
:10949000399BD807FAD53D4B2B6023683A933A9B0A
:1094A000D907FAD53A4B2B6023683B933B9BDA07ED
:1094B000FAD52F6023683C933C9BDB07FAD5C5F8AF
:1094C000008023683D933D9BD807FAD52F60236821
:1094D0003E933E9BD907FAD5C5F8009023683F9389
:1094E0003F9BDA07FAD52B4B2B6023684093409BB8
:1094F000DB07FAD5284B2B6023684193419BD807A3
:10950000FAD5264B2B601622152114231A208DE83C
:10951000060002901846FFF733FB5B4609AA314666
:109520001B20FFF7EBFC00EB8A00043007284CD827
:10953000DFE800F0B8BDB4AAA5AF933A80B00250FE
:10954000C0066249B0B0025000066241001662498E
:1095500040D62129C0D32029C014212940555521A6
:10956000806569908046512180A6692180A655902A
:1095700000415190004510210041112100415C2122
:1095800080A621291A4510C80045692180A65121CD
:1095900040A129298076699040552529554514C850
:1095A000805655214055559012204FF0110E102332
:1095B00016221521059014208DE80F00CDF810E03B
:1095C0001723FEF7F5FF4FF0FF3A023E7FF503AF9A
:1095D00019201C21162215231824039002910192B0
:1095E00000930E22049414230D210C20FEF7A0FEFC
:1095F000804ABAF1000F5FD113682893289BDD07DA
:10960000FAD57D4B7D497B4A196013682993299BC4
:10961000DC07FAD578487A4C04607A497A4B079887
:10962000744A002808BF194613682A932A9BD80752
:10963000FAD5714B6F4A196013682B932B9BDB078C
:10964000FAD56D4B714A1A6018231D221C21012086
:10965000FFF788FD43B0BDE8F08F0E204FF00D0EF0
:109660000C2316221521059014208DE80F00CDF84B
:1096700010E01723FEF79CFF4FF0000AA5E7182023
:109680004FF01D0E1C2393E718204FF0190E1C23DA
:10969000E7E718204FF01D0E1C23E2E70E204FF0E5
:1096A0000F0EDDE712204FF0130E1023D9E70E2026
:1096B0004FF00F0E0C237BE713682493249BD907EC
:1096C000FAD54D4B52494B4A196013682593259B97
:1096D000DB07FAD548484F4C04604F494F4B079879
:1096E000444A002808BF194613682693269BDF07C3
:1096F000FAD5414B3F4A196013682793279BDE0731
:10970000FAD53D4B464A1A609EE73A4A13681D93C4
:109710001D9BD907FAD5384B4249364A1960136860
:109720001E931E9BDB07FAD5334B3F49314A196024
:1097300013681F931F9BDF07FAD52F4B3B492D4A18
:10974000196013682093209BDD07FAD52A4B384A0D
:109750001A604FF0FF3A1AE6264A13681993199BCC
:10976000DF07FAD5244B3349224A196013681A934C
:109770001A9BDD07FAD5204B2F491E4A1960136842
:109780001B931B9BDC07FAD51B4B2C49194A19600C
:1097900013681C931C9BD807FAD5174B284A1A60EC
:1097A0004FF0000AF3E5134A13681593159BDC0785
:1097B000FAD5114B1F490F4A196013681693169B6F
:1097C000D807FAD50C4B1C490A4A1960136817933D
:1097D000179BD907FAD5084B1849064A1960136830
:1097E0001893189BDB07FAD5034B154A1A604FF004
:1097F000FF3ACCE5B0B0025080B00250C0552129EC
:10980000000752494007564940075E4900065A4939
:10981000C0D32029000732494007364940073E4956
:1098200000063A49000542494005464980054A4933
:10983000C0054E49000532494005364980053A4980
:10984000C0053E492DE9F041624A92B01368009389
:10985000009BDF07FAD5604B6049614A19601368C5
:109860000193019BDE07FAD55E4B1B68DD0400F116
:10987000AB80584A13680293029BDC07FAD5564B1B
:109880005949574A196013680393039BD807FAD5BF
:10989000544B1B68D90400F18780514BDFF870E10D
:1098A0004C494D4D51484FF0010C514F514E002441
:1098B0001A680492049AD207FAD5DEF800801A6872
:1098C0000692069AD207FAD5C7F800803268059248
:1098D000059A12B960E052080134D707FBD514F09D
:1098E0001F0609D0444F013E47EA06370E68089626
:1098F000089EF607FAD52F601E680996099EF7079D
:10990000FAD53E4ED6F800801E680B960B9EF607E1
:10991000FAD5374F374EC7F8008036680A96E70702
:109920000A9E05D506F00704032C4AD0052C48D022
:1099300002F00302032A3DD00A680C920C9AD60763
:10994000FAD52F4A2A600A680D920D9AD407FAD5E3
:109950002C4A2A600A680E920E9AD207FAD52A4A31
:109960002A600A680F920F9AD707FAD5274A2A6009
:109970000A681092109AD607FAD5184A2A601A680F
:109980001192119AD407FAD5164A1268D2048CD5CE
:10999000604612B0BDE8F0810A680792079AD207C4
:1099A000FAD52860203483E74FF0010C604612B0EE
:1099B000BDE8F08106F00306032E08BFCCF1000CD1
:1099C000BAE7CCF1000CB3E74FF0000C604612B0E0
:1099D000BDE8F081B0B0025080B0025000082A51BA
:1099E000B4B0025088B0025000182A5180F22961A8
:1099F000E4B00250DCB00250800228612CB002506A
:109A000000032A4980022E49C0C228A1C00232495F
:109A100028B002502DE9F0473D4ABAB013680093D0
:109A2000009BDE07FAD53B4B3B493C4A1960136863
:109A30000193019BDD07FAD5394B1B68DC0400F16B
:109A40002B81364A13680393039BD907FAD5354B0C
:109A5000324A196813680593059BDB07FAD5324A29
:109A6000324B11601B680493049C04F00303032B26
:109A700000F0A08104F00707052F254A00F01981A6
:109A800013681993199BDD07FAD5224B2849204A00
:109A9000196013681A931A9BD807FAD51D4B254AEB
:109AA0001A60FFF7CFFE013000F05682184A1368A3
:109AB0001B931B9BD907FAD516481F4B0360671EE3
:109AC00040F0FF811249DFF878E0144B1B4E164D31
:109AD000164CB8460A681C921C9AD207FAD5C0F8F0
:109AE00000E008F120081A681D921D9AD707FAD5E0
:109AF00037681A681F921F9AD207FAD52F6022681A
:109B00001E921E9F002FE5D017F001031BD02BE003
:109B1000B0B0025080B0025000081251B4B00250F0
:109B200088B0025000B00250E4B00250DCB00250E5
:109B300080021249C0020249C01002290CB0025032
:109B4000C0F00D6113467F08FE0703F10102F9D54D
:109B50007D487E49904440EA03300B682093209B67
:109B6000DD07FAD57A4B1860784A13682193219B58
:109B7000DC07FAD5764B7749744A1960136822934B
:109B8000229BD807FAD5724B734A704CDFF81492B7
:109B9000724E734D1A609A4623682393239BD9070C
:109BA000FAD5CAF8009023682493249BDA07FAD5E3
:109BB000CAF8006023682593259BDB07FAD5CAF80D
:109BC0000050FFF73FFE0130E6D1604A136826934C
:109BD000269BDC07FAD55E4B62495C4A1960136824
:109BE0002793279BD807FAD5594B5F49574A1960E5
:109BF00013682893289BD907FAD5554B5249534AE5
:109C0000196013682993299BDB07FAD5504B5749F4
:109C10004E4A196013682A932A9BDE07FAD54C4BEB
:109C200053494A4A196013682B932B9BDD07FAD5D9
:109C30004748504A454BDFF87091DFF870C14E4EEF
:109C4000DFF86CE102601A682C922C9AD407FAD5DE
:109C5000C0F800901A682D922D9AD107FAD547497D
:109C6000474DC0F800C000241A682E922E9AD207E1
:109C7000FAD506600A682F922F9AD207FAD52A6879
:109C8000D20400F1218101341A683092309AD2074F
:109C9000FAD5C0F800E0E7E72C4A13680293029B6C
:109CA000D807FAD52A4B374A1A6001203AB0BDE8E6
:109CB000F08713680993099BDC07FAD5244B3249D6
:109CC000224A196013680A930A9BD807FAD5204BD9
:109CD0002E491E4A196013680B930B9BD907FAD5BE
:109CE0001B4B2B49194A196013680C930C9BDB071B
:109CF000FAD5174B2749214A196013680D930D9B1C
:109D0000DE07FAD51E4B114A1B68DD0440F18F8037
:109D100013680E930E9BDC07FAD50D4B1E490B4AB8
:109D2000196013680F930F9BD807FAD5084B1B498E
:109D3000064A196013681093109BD907FAD5044B93
:109D4000174A1A60002051E0C0000C61B0B0025008
:109D500080B00250C0011E41C0111E4980021E4940
:109D6000C0020249C0311C98C0100E21C0301098AA
:109D700040021249809184A800182651B4B00250C4
:109D800088B00250C0000E4140120229C011246167
:109D90008071109800181A518031022180211861B9
:109DA000C0601098C0111E2140320C884062248887
:109DB00040922488343A13680693069BDF07FAD54D
:109DC0006A4B6B496B4A196013680793079BDE0760
:109DD000FAD5664B6849674A196013680893089B6F
:109DE000DD07FAD5614B654A1A600020614A1368A5
:109DF0003793379BDC07FAD55C4B61495D4A1960A4
:109E000013683893389BD907FAD5584B5D495E4A99
:109E1000196013683993399BDB07FAD55B4B1B68D4
:109E200013F4805F18BF01203AB0BDE8F0871368D3
:109E30001193119BDB07FAD54C4B5549524A1960D7
:109E400013681293129BDE07FAD5504B1B68DD0492
:109E500040F18280474B1A681392139AD407FAD5BF
:109E6000424B4C4A43491A600B681493149BD80721
:109E7000FAD53E4B484A3F491A600B681593159B2B
:109E8000DA07FAD5394B454A3A491A600B681693F6
:109E9000169BDB07FAD5354B414A36491A600B68E9
:109EA0001793179BDF07FAD5304B3E4A31491A60AA
:109EB0000B681893189BDE07FAD52C4B3A4A1A60A8
:109EC00040E74FF000081FE6002C3FD0A8EB040449
:109ED000012C33D0621E02F01F01002A4FF001074F
:109EE000B8BF04F11E028F4051111A683292329AA3
:109EF000D207FAD52D4A244C026022683392339A55
:109F0000D507FAD52A4A204C156822683492349A2B
:109F1000D207FAD5274C284A2944216017601A68CD
:109F20003592359AD207FAD5244A02601A683692D9
:109F3000369AD507FAD5224A026084E61A68319229
:109F4000319AD107FAD51F4A02607CE607F0030375
:109F5000032B06D1012049E70020052F3FF446AF2F
:109F6000A4E607F007070120F7E700BF80B0025022
:109F7000C0100221B0B0025080110C61C060109876
:109F800080310C8800481851B4B0025088B002509B
:109F900000981851805102298021186140121071D7
:109FA000C061249840021071C0901C8800022241B8
:109FB00020B00250D4B00250D8B0025040821C9859
:109FC000C0900C88C0700C8860B3F8B5446B24B99D
:109FD000B3F5805F06D35848F8BD012C02D1B3F524
:109FE000803FF8D204460E4654484FF0FF311D46DC
:109FF000174600F069FBC0B9514A01231360226A79
:10A00000072A16D94F4B1C68002CFCD14C4B4B48EF
:10A010001C6000F07BFB0028DED04B4800F0D8FA33
:10A020002046F8BD4FF471007047484800F0D0FA60
:10A03000E2E7934013F08F0FE4D0636A012BE1D87D
:10A04000636B012BDED8A36B012BDBD8204600F01D
:10A0500045FE0028D6D1A36A012B5DD056D3022B32
:10A0600054D0236A5A1E062A0FD8DFE802F00431C2
:10A07000040E0E0E0400364B22681A6062685A60A5
:10A08000A2689A60E268DA60236A23F00403032B73
:10A0900031D0A36B012B49D02E4A2F4B17602020C3
:10A0A0001D60636B012B2CD02C4A2D4B16601D605C
:10A0B00000F026FA234A1368002BFCD1236A013BE7
:10A0C000062B12D8DFE803F0140614111111140046
:10A0D000244BD1E7234A244B126822601A6862603D
:10A0E0005A68A26008331B68E3600123236389E791
:10A0F000174A1E4BF0E7636B012B01D01020D3E70A
:10A1000040201B4A1B4B16601D60D1E71A491B4AB1
:10A110000B6001231360A4E7194B22691A6062697E
:10A120005A60A2699A60E269DA609AE7154A164BAA
:10A13000176080201D60B4E70500F10070DE00208C
:10A1400010B8025010B9025070810300588103000A
:10A1500040B4025030BD025034BD025030BC0250F9
:10A1600034BC025060B4025064B4025044B4025093
:10A1700028BC02502CBC025038BA025078B40250AD
:10A1800000B4025028BD02502CBD0250F0B504238B
:10A1900085B00122C0F8D03000230A6068460C4622
:10A1A000019300930293039300F0E6FA074600BB85
:10A1B000019B009E029D03992361002B14BF022284
:10A1C0000022002E18BF42F00102002D14BF04230C
:10A1D0000023002942EA030214BF0823002313438B
:10A1E00038460022E6606561A1616360A26005B047
:10A1F000F0BD024800F0ECF9DAE700BF8881030007
:10A2000018B159B122B91A4870474FF4700070471D
:10A2100038B512F00F0403D0154838BD1548704703
:10A22000056A25F00405032D01D0D3B11C46134661
:10A230002246FFF7C9FE104B984214D005D8B0F55E
:10A24000710F12D00BD838B938BD0C4B984206D0DC
:10A2500005D301339842DFD04FF4750038BD08486C
:10A2600038BD084838BD084838BD4FF47000EBE7EA
:10A270000A00F0000800F0000200F1000400F10004
:10A280000200F0000900F0000600F000A0B1C2B129
:10A29000994201D93248704770B5059B7BB1036A7A
:10A2A00023F00404032C049C0FD064B3059C2468A1
:10A2B000A1420FD92B4870BD4FF4700070472A4857
:10A2C00070BD0029E8D029487047F4B1059C246886
:10A2D0000F2CEFD90C0703D0012B21D9032B1FD052
:10A2E0000E4633461146049A0446FDF7D1FB054657
:10A2F00068B11F4B984230D017D8B0F5710F29D0F4
:10A300001CD8C0B970BD0029EAD01A4870BD236AB4
:10A3100023F00403032B13D0059B1E60284670BD59
:10A32000C36A002BDCD1144870BD144B984205D988
:10A3300001339842F7D04FF4750070BD104870BDDE
:10A3400004982146102200F099F9059A1023136011
:10A35000284670BD4FF4700070BD0A4870BD00BF44
:10A360000C00F0000D00F0001100F0000800F000FB
:10A370000200F1000900F0000A00F0000400F10002
:10A380000200F0000600F00048B1032A03D9052AB4
:10A3900001D017487047012904D9164870474FF477
:10A3A000700070470BB114487047022A70B505461B
:10A3B00014460E4611D0052A0FD04C2100F064F946
:10A3C000052C11D94FF0FF32002001232A626E6262
:10A3D000E86228636B63AB6370BD0EB1074870BD64
:10A3E0004C21284600F050F9054B53F82420EBE7A8
:10A3F0000200F0000600F0000E00F0001200F00075
:10A400001081030060B108B5036A013B022B01D93A
:10A41000064808BD39B1102200F030F9002008BD0F
:10A420004FF470007047024808BD00BF0200F00002
:10A430000100F00038B122B109B10E487047082B75
:10A4400004D00D4870474FF4700070475368102BCC
:10A4500001D00A4870471368002BF2D010B513469C
:10A46000012282620C46103093E8060000F006F9E3
:10A47000204610BD0500F0000400F0000300F000CD
:10A4800000487047F482030000487047D0850300FD
:10A4900000487047AC88030000487047888B030071
:10A4A00000487047648E03000048704740910300E5
:10A4B000004870471C94030000487047F89603005A
:10A4C00000487047D499030000487047B09C0300CF
:10A4D000004870478C9F0300014B1860704700BF15
:10A4E00008BA0250014B0020186070475CBE002083
:10A4F000014B1860704700BF04BA0250002070473B
:10A5000010B5044682B0C0B1124A134BC14311606A
:10A510001B680193019B18420AD1104A20BFBFF368
:10A520005B8F1368BFF35B8F0193019B1C42F5D0D7
:10A530000B4B1C60019802B010BD0A4800F048F8AF
:10A54000044A054B4FF0FF3111601B680193019BDA
:10A55000E3E700BF04BA025000BA02505CBE00201C
:10A5600008BA0250B881030008B5FFF7C7FFBDE87D
:10A57000084000F0DDB800BF10B500F03FF810B1A2
:10A580000424204610BDFFF7ADFFB0B90C4B1B688B
:10A590001B0EF02B06D10B4A0B4B12689A4208D0C7
:10A5A000062400E00524FFF7A9FF00F0C1F82046CB
:10A5B00010BD064B04461860E3E70324F5E700BF2F
:10A5C00028B9025024BA02500000E0200CBA025010
:10A5D000BFF34F8F0549064BCA6802F4E06213438C
:10A5E000CB60BFF34F8F00BFFDE700BF00ED00E081
:10A5F0000400FA0500207047704700BF08B500212D
:10A600004FF40040FFF7F6FF08B1012008BD1248E3
:10A6100000F03EF878B9114800F03AF898B9104BBC
:10A620000E4A10481A6000F033F880B90E4B0D4AFC
:10A630001A60002008BD0D48FFF7CAFF074800F068
:10A6400027F80028EBD00A48FFF7C2FFE7E70948E0
:10A65000FFF7BEFFEAE700BF70DE002068DE0020E3
:10A6600064DE00206CDE002060DE0020E881030054
:10A670000482030020820300FBF735BFFBF700BF15
:10A68000FBF7FEBEFBF726BF0A460021FBF722BF01
:10A6900010B5044610B10020206010BD0248FFF73D
:10A6A00097FF0020206010BD4082030010B50446D3
:10A6B00010B10020206010BD0248FFF789FF002084
:10A6C000206010BD4082030010B50446B8B1BFF34E
:10A6D0005B8F2368BFF35B8F012BF8D00122BFF3A0
:10A6E0005B8F54E8003F44E800210029F9D1BFF313
:10A6F0005B8F012BF3D1BFF35F8F002010BD0248A9
:10A70000FFF766FFE3E700BF6482030010B504466D
:10A7100020B1BFF35F8F0020206010BD0348FFF71A
:10A7200057FFBFF35F8F0020206010BD84820300BD
:10A7300070B50E4E0E4D0F4CFFF75EFF3046FFF723
:10A74000B5FF30460421FFF79FFF2846FFF7AEFF15
:10A7500028460421FFF798FF2046FFF7A7FF204671
:10A760000421BDE87040FFF78FBF00BF70DE0020FE
:10A7700068DE00206CDE002003464FF47A724FF44E
:10A78000FA71002099601A605A60D860704700BF63
:10A790002DE9F04F7A4C80460F4696469C460FCCEA
:10A7A000B7B007AD0FC594E80F0004F1100685E8B7
:10A7B0000F000FCE0FAD0FC596E80F00303485E8BF
:10A7C0000F000FCC17AD0FC50FCC0FC594E80F00CD
:10A7D000D8F8D040042C85E80F0005D0082C03D011
:10A7E000684837B0BDE8F08F251D409BAD009D4205
:10A7F00003D0654837B0BDE8F08F07EB0E019EFA35
:10A800008EF30EF118080EF109003B6095FA85FEF3
:10A81000802328F00F08A8EB0002C7F804E03844B2
:10A820000B720021CDF80CC0FFF72CFF409B1B09D9
:10A83000A5F1100508BF0DF18C0975D0042C38D096
:10A8400017ACDDF80CB04FF0000A0DF18C0921E0D7
:10A85000484607AE05960695FFF7ECFD21461034F5
:10A8600028BB4846FFF7CEFD0DF1D80E4FF0100C77
:10A8700043463A464146D0B94EF8C8CD48468DE8E1
:10A880000048FFF703FD0BF1100B80B9409BBAEBBA
:10A89000131F49D20023194602224846FFF774FDD0
:10A8A0000AF1010A0146082305AA0028D0D037483A
:10A8B00097E70FACDDF80CB04FF0000A0DF18C09F2
:10A8C00024E0484607AE05960695FFF7B3FD2146FE
:10A8D00010340028EBD14846FFF794FD0DF1D80E57
:10A8E0004FF0100C43463A4641460028DFD14EF85F
:10A8F000C8CD48468DE80048FFF7C8FC0BF1100BA7
:10A900000028D4D1409BBAEB131F0DD20023194667
:10A9100002224846FFF738FD0AF1010A01460823E2
:10A9200005AA0028CDD0C2E70023039C0594194650
:10A93000012248460695FFF727FD0028B7D10146BA
:10A94000082305AA4846FFF775FD0028AFD1039BF1
:10A9500048465919FFF756FD01460028A7D1039C28
:10A96000409A2046FFF78EFE409B009440AA019239
:10A97000484622461946FFF789FC002897D130E760
:10A9800070800300210CF000230CF000360CF00066
:10A990002DE9F0438FB0884607A917460646FFF712
:10A9A000F5FB044630B9D6F8D040042C06D0082C6C
:10A9B00004D0434C20460FB0BDE8F083D6F8C43035
:10A9C0000C2B04D93F4C20460FB0BDE8F083B8F102
:10A9D000000F3CD162010EAB06A843F8242D04AA57
:10A9E00001900092029707A900223046FDF76CFA09
:10A9F00058BB069B0498D6F8C42023F00303083301
:10AA000006F18409184492004946FFF737FED6F84C
:10AA1000C420069B04990434A50003EB820422465B
:10AA200000954B4630460694FFF7B2FE044688B1C7
:10AA30003046E421FFF728FE38464FF4BF51FFF7B8
:10AA400023FE20460FB0BDE8F0831F4CF0E7221D27
:10AA50005201C0E7B8F1010F18D00346324649460B
:10AA6000304600F035F808B10446E1E7D6F8D430B6
:10AA700001221343C6F8D430C6F8CC200023484640
:10AA8000C6F8C4304021FFF7FFFDD5E72946304620
:10AA9000FFF7FAFD234632464946304600F018F8E3
:10AAA0000028E1D1D6F8D430084AC6F8CC8023F487
:10AAB000803343F00103C6F8D430C6F8DC20DDE76C
:10AAC000210CF000040CF000260CF000CDAB2301AB
:10AAD000F0B51F4699B000230E461546D0F8D04079
:10AAE000194605A80322FFF74FFC10B1174819B00B
:10AAF000F0BDA4000146082303AA05A80494039509
:10AB0000FFF798FC0028F1D1291905A8FFF77AFC76
:10AB10000028EBD13FB92B461022314605A8FFF79C
:10AB20006FFB0028E2D118A904F1100341F8583D49
:10AB3000324601910095194605A8FFF7A7FB034B84
:10AB4000002814BF18460020D1E700BF360CF000E3
:10AB50002DE9F04F83B00C9C44B189B158B1022B60
:10AB600013D9534D284603B0BDE8F08F514D284608
:10AB700003B0BDE8F08F504D284603B0BDE8F08F1C
:10AB80004E4D284603B0BDE8F08F0BB10D9D4DB181
:10AB9000D0F8B852B5F5107F06D9494D284603B014
:10ABA000BDE8F08F474DDDE7D0F8BC726E1CB742B0
:10ABB000F3D80F78072F01D9434DD3E7052FFBD0EA
:10ABC000073507F0060EEE087546022D05D0750014
:10ABD0000135AA4204D03D4DC4E7751C9542FAD117
:10ABE0008A46009105464FF45D71204606F1030840
:10ABF000019328F0030BFFF747FD04F104095246C7
:10AC00005946484633460132FBF7F8FD78B1304BE0
:10AC100020464FF45D711D46FFF736FD0D9B002B5E
:10AC2000A0D04FF463711846FFF72EFD9AE74FEA64
:10AC30009808434641462A464846FBF7CFFC02287F
:10AC400001D0234D8EE77B070ED429464FF437728F
:10AC500004F19400FFF712FD39464846FCF73EFE2A
:10AC60000546B8B11B4BD3E7009B721C134404F19B
:10AC70004C0A1A46594650463346FBF7BFFD00289A
:10AC8000C5D15046434641462A46FBF7A7FC022859
:10AC9000D7D1DAE7019B022B02D00F4B2360BDE72F
:10ACA00048460D99FCF778FD03460028B0D1F4E73B
:10ACB0001108F0000E08F0000208F0000D08F00086
:10ACC0009508F0001208F0000708F0000F08F000E7
:10ACD0001008F0003008F000010000EC38B51E4B01
:10ACE0001E49012205461A600B68002BFCD11C4B43
:10ACF0001A68002AFCD11B4B1A68002AFCD11A4B97
:10AD00001A68002AFCD1194B1C68002CFCD14FF0AA
:10AD1000FF30FFF7E1FB2B6A23F00403032B0CBF8A
:10AD200080204020FFF7E4FB114B1C602B6A23F0CE
:10AD30000402032A18BF6C6A0E4A9B0003F01C032E
:10AD400004F00104234313602B6A072B02D10A4B42
:10AD500001221A60002038BD00B9025070B40250C0
:10AD600020BD025020BC025038BD025038BC0250F9
:10AD7000BCB40250C0B402507CB402502DE9F04F74
:10AD800089B00025A846CDF81C80CDF820804FF46E
:10AD9000807901240026634F484607F09DFF38B1B3
:10ADA000D7F80403204018B1484607F08BFF25432D
:10ADB000640009F104091FFA89F9761C082EEBD307
:10ADC0004FF4BE74204607F087FF48B1204607F0D5
:10ADD00079FF45F0004507AA0221002007F05EFF39
:10ADE000DFF8449115F0FF0F15D0012600242E4204
:10ADF0000DD007EB8401D1F81005C0F30520D1F880
:10AE00001015C1F3014159F8242002B19047760092
:10AE1000641C082CEBD3002D70DACDF81480CDF82B
:10AE200018800020411E0DF10C0848F82010401C2D
:10AE30000228FAD30024002509EB050010F8606F02
:10AE400026F0C00B90F90000401C3AD003A95846E8
:10AE500006F082FAA8B3B609584603F03DFD59F84A
:10AE600020700FB9032E2CD1032E03D105A958460B
:10AE700006F07AFACDF808B002A807F0CBFE0299E6
:10AE800000EB8100D0F80007C0F3014A07A958463B
:10AE900006F062FA10B1BAF1020F03D088B9BAF124
:10AEA000030F0ED1032E08D1BAF1020F1ED00221DA
:10AEB000584607F070FE641CE4B217B1314658469C
:10AEC000B8476D1C042DB7D334B3012501AA022164
:10AED000002007F0E3FE002007A901AA51F8206036
:10AEE00052F82030B34203D0002504E00321DFE70D
:10AEF000401C0228F2D315B100240DE00EE0002022
:10AF000005AB52F8205041F8205053F8205048F833
:10AF10002050401C0228F4D3002C8BD109B0BDE88E
:10AF2000F08F00000060004024A0002000F01F020D
:10AF3000012191404009800000F1E020C0F880121A
:10AF4000704700F01F02012191404009800000F18C
:10AF5000E020C0F80011704700F01F02012191406D
:10AF60004009800000F1E020C0F800127047490756
:10AF7000090E002806DA00F00F0000F1E02080F84A
:10AF8000141D704700F1E02080F8001470470000A5
:10AF9000BFF34F8F05480168054A01F4E061114392
:10AFA0000160BFF34F8F00BFFDE700000CED00E034
:10AFB0000400FA05BFF34F8F05480168054A01F404
:10AFC000E06111430160BFF34F8F00BFFDE7000058
:10AFD0000CED00E00400FA0510B508F04DFABDE8EC
:10AFE000104008F027B900000448002101644164C2
:10AFF0008164C164016041600BF012BE0011014028
:10B000000BF042BD07F0A0BF02490148086070473D
:10B010000090D003502F002070B504F0A8F8002451
:10B0200020B16748046044606648046004F0ACF8EE
:10B03000002857D064480068644908606248001DD1
:10B040000068091D0860604808300068091D086034
:10B050005D480C300068091D08605B4810300068CE
:10B06000091D0860584814300068091D08605648DA
:10B070001830006855492031086053481C3000687A
:10B08000091D0860504820300068091D08604E48BE
:10B09000243001684D482C3001604B48283000684E
:10B0A0004A493031086048482C300068091D086062
:10B0B00045483030006845494031086042483430E6
:10B0C0000068091D0860404838300068091D0860A4
:10B0D0003D483C300068091D08603B48403000682E
:10B0E000091D086004F05DF810B13A49384808605D
:10B0F00004F009F810B13849FB20086004F010F89A
:10B1000030B1364802783648016862F303010160C5
:10B1100004F013F818B133494FF40070086004F0DC
:10B1200019F830B130480168C90702D06FF0010149
:10B1300001602E48016841F470010160BFF34F8F38
:10B14000BFF36F8F4FF01023D3F80C02284AC507C6
:10B1500028484FF0010112D0116001680029FCD08D
:10B16000D3F80C1221F00101C3F80C120168002978
:10B17000FCD0146001680029FCD0FFF71BFFD3F856
:10B180000052002D03DBD3F80452002D14DA1160B5
:10B1900001680029FCD01225C3F80052016800297B
:10B1A000FCD0C3F8045201680029FCD01460016887
:10B1B0000029FCD0FFF7FEFEBDE87040FFF724BF7A
:10B1C0000C010040380500400404001020C5004078
:10B1D000488103008C56004018F5004058020010CA
:10B1E000E40E0040409602400004004088ED00E07C
:10B1F00004E5014000E40140014800680047000008
:10B20000B02E00202DE9F05F5148D0F804934D4650
:10B2100000244FF0010816E095FAA5F0B0FA80F688
:10B220004FEA860A0AF5807A504607F07DFF074606
:10B2300017B1504607F082FF17B108FA06F0044331
:10B2400008FA06F08543002DE6D107F089F90028B9
:10B2500062D0404DE878E8BBA0025DD53E4F40F299
:10B26000A97BC7F800B03E1D3068C2B20AB1306891
:10B27000024040F2AA7AC7F800A03068C1B209B112
:10B280003068014040F2AB7CC7F800C03068C0B203
:10B2900008B13368184040F2AC733B603368134028
:10B2A00033B12A691A432A61C7F800B033603268A3
:10B2B00040F2AD723A6032680A403AB1296941EA17
:10B2C00002412961C7F800A03260316840F2AE71D6
:10B2D000396000E020E03168014059B1C80701D071
:10B2E00044F40004C80601D544F00104C7F800C0C6
:10B2F00031603068286930F0011102D009F08071A6
:10B300000C4310F0011F07D05FEA495104D520F02B
:10B310000110286144F48064C4F3C05724F400058C
:10B320000E4C09E095FAA5F0B0FA80F654F8260024
:10B33000804708FA06F08543002DF3D10BF0A4FDF9
:10B34000002F03D0BDE8F05F04F048B8BDE8F09FDF
:10B3500000700240BC2E002000780240287C0300D0
:10B36000C11700EBD161074B4A1153F8222021F09D
:10B370001F01411A01208840024201D0012070477C
:10B380000020704700E100E00FB41CB50246002029
:10B3900007AC00290BD0491ECDE90021054B6A46B8
:10B3A0002146069800F030F8009A002111701CBC6C
:10B3B0005DF814FBC9B6020002E008C8121F08C1FC
:10B3C000002AFAD170477047002001E001C1121F26
:10B3D000002AFBD1704700000121202807DA8140B4
:10B3E0000848014201D001207047002070474028E2
:10B3F00006DA2038814001D00120704700207047D4
:10B4000001207047FC06FFBD2DE9FF4F8DB09B4624
:10B410000F460446002606E025280BD05A460F9911
:10B420009047641C761C20780028F5D111B0304676
:10B43000BDE8F08F0025A8460122984900E00543A9
:10B4400014F8013F203B02FA03F00842F7D12078BC
:10B450002E2817D114F8010F45F004052A280ED024
:10B460006FF02F022078A0F1300109290AD808EBEB
:10B47000880102EB410100EB0108641CF2E757F878
:10B48000048B641C20786C280DD004DC4C2812D06E
:10B490006A2811D104E074280DD07A280CD10AE072
:10B4A00045F4001507E0617845F48015814202D12A
:10B4B000641C05F58015641C2278692A45D008DCD7
:10B4C000002AB3D0582A69D0632A10D0642A08D140
:10B4D0003BE0702A67D0732A13D0752A5CD0782A93
:10B4E0005CD010465A460F999047761CD3E017F867
:10B4F000040B8DF8000000208DF80100E9460120C2
:10B5000003E057F8049B4FF0FF3069074FF0000548
:10B5100001D40AE06D1C45450DDA8542FADB19F8C5
:10B5200005100029F6D106E06D1C8542FCDB19F8F8
:10B5300005100029F8D12E4404E019F8010B5A46F1
:10B540000F9990476D1EF8D2A5E00A200021CDE9A1
:10B550000801C5F3025002280DD001CFC117031E08
:10B5600071F100030DDA4FF0000CD0EB0C006CEB26
:10B5700001012D2308E0FF1D27F00707F7E802016E
:10B58000EDE72B0504D52B238DF8283001233BE074
:10B59000EB0739D02023F7E70A2000E01020002134
:10B5A000CDE9080107E01020002145F00405CDE9B0
:10B5B00008014FF00808C5F3025002280FD001CF50
:10B5C00000214FF0000A2B071FD5702A0DD0DDE9AE
:10B5D00008C38CF0100C5CEA030C0CD015E0FF1DC6
:10B5E00027F00707F7E80201EBE740228DF8282053
:10B5F0004FF0010A0BE050EA010306D030238DF82A
:10B6000028308DF8292002239A46582A04D024A2F3
:10B610000DF120090B9209E026A2F9E7DDE90823E4
:10B62000FAF7EEFE0B9B9B5C09F8013D50EA010224
:10B63000F4D1ADEB090020300890680701D44FF039
:10B6400001080899884502DDA8EB010000E0002010
:10B650008046002506E00AA85A46405D0F999047AB
:10B660006D1C761C5545F6DB04E030205A460F99D8
:10B670009047761CB8F10001A8F10108F5DC05E05F
:10B6800019F8010B5A460F999047761C0899481EE5
:10B6900008900029F4DC641CC5E6000009280100BC
:10B6A0003031323334353637383961626364656638
:10B6B00000000000303132333435363738394142FA
:10B6C00043444546000000004A68002A06D00A6844
:10B6D000531C0B6010704868401E4860704710B5DE
:10B6E000002808D039B102780B785208B2EB530F1A
:10B6F00003D0002010BD002010BD0622491C401CB4
:10B70000FAF7F1FE08B1002010BD012010BD80073E
:10B7100001D0002070470120704740680068401E3B
:10B72000084201D10120704700207047C3688B4256
:10B7300006D811440069491E814201D80120704792
:10B740000020704710B500280BD00749CA68824214
:10B7500007D80969814204D305F0CDF908B1012069
:10B7600010BD002010BD0000542F002010B5012294
:10B770000221002001F02CFF08B1072810D1072278
:10B780000221012001F024FF08B1072808D100217F
:10B790000A22084601F01CFF08B1072800D100204A
:10B7A00010BD70B58CB00E46154600236C46C3F133
:10B7B0000F01415CE1545B1C102BF8D30D2104A850
:10B7C000FAF786FE0020C0F10F022244315C1174AA
:10B7D000401C0328F7D3684646DF0020C0F10F0164
:10B7E000214491F820102954401C0328F6D30CB0B2
:10B7F00070BD00000149C97801F0B6BA182E0020CA
:10B80000CCB001AB03F021FA01460648027940783A
:10B81000024205D001A80AF0BDFD642006F052FAEC
:10B82000FFF7B6FB982A00202DE9F84F80460D4619
:10B830009146204E7088854239D84FF6FF7A54469B
:10B8400000270097684601F03DF896F800B0707840
:10B8500005F094FC584501D1012100E0002121B9F7
:10B860007478707805F08AFC70709DF8000001F023
:10B870004BF8544519D0B16841F83490B8F1000F35
:10B880000DD065B17188F0682A4604FB010041467D
:10B89000FAF7F6FDB06800EBC400858002E001EB2A
:10B8A000C40087800020BDE8F88F0420FBE7092052
:10B8B000F9E70000D02E002010B50E4C0FE02278E2
:10B8C0006188E06802FB0100A36803EBC20189887C
:10B8D00053F832209047207805F050FC20702078F3
:10B8E0006178814201D1012000E000200028E6D0EB
:10B8F00010BD0000D02E002010B54B1C4FF6FF7479
:10B9000004EAC30493070CD0002363B1074B9A6089
:10B910002244DA6000225A701A7058809980002000
:10B9200010BD0123F1E7072010BD0000D02E00203C
:10B930000A4B9B78002B06D03AB140B10068037CDB
:10B940003BB1082070470820704707207047072048
:10B9500070474174426100207047000088A40020B5
:10B9600010B509F04FFF0E490020087048700B22F7
:10B970008A700C4C6060207060701420FFF7D6FA5B
:10B9800006211420FFF7F3FA1420FFF7DAFA00205B
:10B9900009F016FF04480068A060002010BD0000F8
:10B9A00088A40020182F00200415014013460D4ADA
:10B9B0009278002A05D0020005D0052905D207207B
:10B9C0007047082070470820704742692AB1427CBE
:10B9D000012A04D000220BF0D5B8082070470A468F
:10B9E000F9E7000088A4002008498978002908D0D8
:10B9F000010008D0416931B10021017402210BF02E
:10BA0000EFB80820704708207047000088A4002085
:10BA100070B5054600F048F9044605E02946204681
:10BA200002F0C6FF20680468002CF7D170BD70B525
:10BA300000F03AF905460CE02E7A002405E0214694
:10BA4000284600F05CFD641CE4B2B442F7D32868D9
:10BA50000568002DF0D170BD70B500F025F90546E0
:10BA60000DE02E7A002406E000222146284600F050
:10BA700088FD641CE4B2B442F6D328680568002D42
:10BA8000EFD170BD70B50546062100F00DF90446F2
:10BA900008E02946204602F08BFF0146062903D123
:10BAA00020680468002CF4D1084670BD7CB50B46B4
:10BAB00004680C34217DC90712D0E56E95B195421A
:10BAC00000D915462A461846A16EFAF7D9FCE06E51
:10BAD000401BE066A06E2844A066656700207CBD20
